:020000022000DC
:106000000000042061620200B9620200BB6202006B
:10601000BD620200BF620200C16202000000000017
:10602000000000000000000000000000C362020049
:10603000C562020000000000C7620200C9620200DF
:1060400061C40200CF620200E9D10200D362020003
:10605000D5620200D762020001CF0200DB620200BB
:10606000DD620200DF620200E1620200E362020020
:10607000E5620200E7620200E9620200EB620200F0
:10608000ED6202004D870200F1620200F36202003D
:106090008D870200F76202004D140300FB620200CC
:1060A000FD620200FF62020001630200036302005E
:1060B0000563020007630200CB620200CB620200AC
:1060C000096302000B6302000D6302000F6302000C
:1060D00085D40200136302001563020017630200F7
:1060E000196302001B6302001D630200CB62020001
:1060F000CB62020021630200CB6202001F63020038
:10610000364937480A1A02D0072291438D4635494D
:1061100035480A1A06D00722914381F309880222E2
:1061200082F3148831483249324A00F045F8324847
:106130003249334A00F040F832483349334A00F0DC
:106140003BF833483349344A00F036F83348344991
:10615000344A00F031F834483449354A00F02CF81C
:1061600034483549354A00F027F83548354900228A
:1061700000F02DF834483549002200F028F8344862
:106180003449091A082903DB002202600430016047
:10619000314A90471F482049884205D002680430A0
:1061A00003B4904703BCF7E700208646EC46002086
:1061B00000212A4A9047FEE7884207D0521A05D0AC
:1061C000037801300B700131013AF9D170478842F0
:1061D00002D002700130FAE770470000000004208E
:1061E00000E0032000000420000004208C43030092
:1061F0006C32002008330020246302002463020074
:106200002C1C03008C4303006C3200206C320020F5
:10621000541D0300541D0300541D0300541D0300AE
:10622000541D0300541D0300541D0300541D03009E
:106230008C43030028440300083300200833002067
:1062400008330020C83E0020C83E0020C83E002081
:10625000C83E0020C85E002085620200E102030003
:106260000F484FF00701884385460E4880470E4887
:10627000016841F470010160BFF34F8FBFF36F8F6E
:10628000FFF73EBF09480A490A4A884207D0521A16
:1062900005D0037801300B700131013AF9D1704714
:1062A00000000420B9B5020088ED00E0081D0300DD
:1062B000203200206C320020FEE7FEE7FEE7FEE71A
:1062C000FEE7FEE7FEE7FEE7FEE7FEE7FEE7FEE7A6
:1062D000FEE7FEE7FEE7FEE7FEE7FEE7FEE7FEE796
:1062E000FEE7FEE7FEE7FEE7FEE7FEE7FEE7FEE786
:1062F000FEE7FEE7FEE7FEE7FEE7FEE7FEE7FEE776
:10630000FEE7FEE7FEE7FEE7FEE7FEE7FEE7FEE765
:10631000FEE7FEE7FEE7FEE7FEE7FEE7FEE7FEE755
:04632000FEE700BFD5
:1063240000B585B00190019B002B0AD0074B43F0C8
:1063340001030393019B9B010293039B02989847DB
:1063440000E000BF05B05DF804FB00BF601D030062
:1063540000B583B00190019B002B0AD04FF47A70F2
:10636400FFF7DEFF019B013B0193019B002BF5D15D
:1063740000E000BF03B05DF804FB08B50AF022F9A1
:1063840000BF08BD00B589B0039002910192019B42
:10639400002B33D00023079303230693029A079B11
:1063A4001344019A194600200AF0BEF80590079A92
:1063B400059B13440793019A059BD31A0193059BEC
:1063C400002B13D10F4B1B7883F00103DBB2002B9E
:1063D40013D10120FFF7BCFF069B013B0693069BEC
:1063E400002B03D1074B00221A7007E0054B012252
:1063F4001A70019B002BD1D100E000BF00BF09B08F
:106404005DF804FB0833002000B585B003900291C9
:10641400054B00934023054A0299039800F012F8B3
:1064240000BF05B05DF804FB896302000C33002053
:1064340082B0019000BF02B0704782B0019000BFEB
:1064440002B0704700B5A1B0059004910392029385
:10645400049804F08CFD039B1593029B1693002370
:10646400179300238DF8603000231993229B1A930D
:1064740000231F930FA91F9B0822049804F032FEE7
:1064840008231F93119B1293BDF84030ADF84C3094
:10649400BDF84230ADF84E3000238DF851309DF8F0
:1064A4003C3003F00303DBB2012B26D10F9BC3F373
:1064B40095231D939DF83C30C3F3C203DBB28DF8E2
:1064C4005030BDF83C30C3F38313DBB21C931C9BE8
:1064D4009A0009A91F9B049804F004FE1C9B9B00CE
:1064E4001F9A13441F9312AA09A915AB00931346CC
:1064F4001C9A1D9801F042F82FE09DF83C3003F0FF
:106504000303DBB2022B28D1BDF83E30C3F3891359
:106514009BB21E939DF83C30C3F3C203DBB28DF8EB
:1065240050301E9B082B28BF08231B9307A91F9BD1
:106534001B9A049804F0D6FD1F9A1B9B13441F93C7
:106544001E9A1B9BD31A1E9315AB12AA07A81B995C
:1065540001F0B6F81E9B002BE3D1049804F016FD5D
:1065640000BF21B05DF804FB00B583B00190019B2E
:106574001B781A460C4B9B5C002B05D0019B043303
:10658400184608F0C1F90BE0019B1B781A46064B2C
:106594009B5C002B04D1019B0C33184607F054FB81
:1065A40000BF03B05DF804FB403A002000B587B09B
:1065B4000390029113468DF8073000230593039B43
:1065C4001B781A46114B9B5C002B09D0039B0433A8
:1065D4009DF807200299184608F0C4F905900FE0C9
:1065E400039B1B781A46094B9B5C002B08D1039B29
:1065F4000C339DF807200299184607F09BFB059081
:10660400059B184607B05DF804FB00BF403A002024
:1066140082B001900091034B01221A7000BF02B0B6
:10662400704700BF8C33002030B58DB003468DF821
:1066340007301A4B02AC1D460FCD0FC495E80F006E
:1066440084E80F00062302934FF0FF3303934FF0C7
:10665400FF3304934FF0FF3305934FF0EB7308932C
:106664009DF80730002B01D00D4A00E0002202AB58
:1066740019460C4805F010FD0B900B9B0A930A9BDE
:10668400002B04D0084A43210A9801F0B3FA074AC0
:106694009DF80730137000BF0DB030BDC81D030056
:1066A400156602006C320020681D03008D33002043
:1066B40000B583B001238DF807309DF807301846E4
:1066C400FFF7B2FF00BF03B05DF804FB00B589B06B
:1066D400039002910192019B8DF81F30124B00220E
:1066E4001A709DF81F301A4602991048FFF75EFF92
:1066F4000690069B0593059B002B04D00C4A53215E
:10670400059801F077FA00BF0A4B1B78002B07D0DD
:10671400054B1B78DBB283F00103DBB2002BF3D112
:1067240000BF09B05DF804FB8C3300206C320020FC
:10673400681D03008D33002000B585B003900291DD
:10674400054B00934023054A02990398FFF77AFE0C
:1067540000BF05B05DF804FBD16602004C33002095
:1067640082B0019000BF02B07047000000B583B052
:1067740001900548FFF7F8FE0020FFF755FF00BF22
:1067840003B05DF804FB00BF6C32002082B00190BE
:10679400019B01225A7200BF02B0704700B583B05A
:1067A4004FF0FF330193FFF7E8FD0421114800F097
:1067B40005FE0190019B002B03DA0F49412002F0F2
:1067C40060F90C48FFF7E2FFFFF772FF04210B4862
:1067D40000F0F4FD0190019B002B03DA06494820E8
:1067E40002F04FF90548FFF7D1FF00BF03B05DF891
:1067F40004FB00BF80320020F41D03008C32002013
:1068040000B583B001900091019B1B681B6800993F
:106814000198984700BF03B05DF804FB00B583B04E
:106824000190019B1B685B680198984700BF03B007
:106834005DF804FB00B583B00190019B1B689B6865
:106844000198984700BF03B05DF804FB82B0019043
:106854000B468DF80330019B9DF803201A7200BF8C
:1068640002B0704782B00190019B1B7A184602B0B7
:10687400704782B00190019B01225A7200BF02B09E
:10688400704782B00190019B5B7A184602B0704752
:1068940000B587B0019000911D4BFF229A601C4BFC
:1068A40000221A601A4B00225A60194B0022C3F8C6
:1068B4001824174B0022C3F81424154B002283F824
:1068C4002024144804F0B8FA0490049B002B01D04F
:1068D400049B18E0104A114BD31ADB0803930023DE
:1068E40005930BE0059B9B000D4A13440293059B03
:1068F4009AB2029B1A80059B01330593059A039B68
:106904009A42EFD30023184607B05DF804FB00BF9A
:1069140060340020D41C0300D41C03006C1C03004E
:1069240038320020024A034BD31ADB08184670475A
:10693400D41C03006C1C030000B587B001900B4607
:106944008DF803309DF80330002B1FD0FFF7EAFFCA
:1069540004900023059313E0059B9B000E4A134407
:106964000393039B5B881A46019B1B689A4204D1DC
:10697400019B059A1A60002309E0059B01330593E6
:10698400059A049B9A42E7D3052300E000231846A6
:1069940007B05DF804FB00BF3832002000B585B0B5
:1069A40001900B468DF803309DF8032001AB11468E
:1069B4001846FFF7C1FF0346002B07D1019BDB00FC
:1069C400054A13440393039B1B6800E00023184605
:1069D40005B05DF804FB00BF6C1C030084B001909B
:1069E4000B468DF80330019BDB00174A13440293D6
:1069F4009DF80330013B032B1CD801A252F823F06D
:106A0400156A02001D6A0200256A02002F6A02004C
:106A140002238DF80F3011E004238DF80F300DE0C0
:106A2400029B1B798DF80F3008E0029B5B798DF88F
:106A34000F3003E000238DF80F3000BF9DF80F30B6
:106A4400184604B0704700BF6C1C030000B585B045
:106A54000190009100238DF80F30019B1B7803F007
:106A64000303DBB2002B06D0019B1B7803F0040365
:106A7400DBB2002B44D0019B1B7803F00403DBB290
:106A8400002B28D0019B1B78C3F30103DBB2012B3D
:106A940002D0022B0CD017E0009B1B68019A1288CD
:106AA400C2F38312D2B213449A1C009B1A6024E0EE
:106AB400009B1B68019A5288C2F3891292B2134454
:106AC4009A1C009B1A6018E010494FF4A47001F05E
:106AD400D8FF00BF11E0009B1A68019B5B88C3F3D9
:106AE40089139BB21946019B1B88C3F389139BB27C
:106AF4000B4413445A1C009B1A6001238DF80F3079
:106B04009DF80F30184605B05DF804FB7C1E0300A9
:106B140000B58BB00023ADF826303E4802F03FF8B4
:106B24003D4802F03CF83D4B5B6804933B4B9B684B
:106B34000693049A069B134002339B00374A13447E
:106B44000433089304AB19460898FFF77FFF034604
:106B5400002B09D0049A069B134002339B002F4A52
:106B6400134404330893EDE700BF0023079311E0B7
:106B7400079B9B0001AA1A44049B591C0491069983
:106B84000B40264902339B000B445B681360079B50
:106B940001330793079B012BEAD99DF80430C3F313
:106BA4000103DBB2012B10D0022B1CD1BDF80A303B
:106BB400ADF82630BDF80630C3F389139BB2033316
:106BC4009A08049B1344049313E0BDF80A30ADF80B
:106BD4002630BDF80430C3F38313DBB21A46049B9A
:106BE4001344049305E00E494FF4C27001F049FFC9
:106BF40000BF094801F0DFFF0590059B002B02D080
:106C0400049B064A5360BDF8263018460BB05DF865
:106C140004FB00BF78380020743800206034002062
:106C24007C1E030000B585B00021074801F040FF39
:106C34000390039B0293029B83F310030193019B34
:106C4400184605B05DF804FB7C38002000B589B017
:106C54000390029101920093039B1B0C0793FFF78F
:106C6400E1FF0690FFF75EFE0246079B9A4204D8B6
:106C7400224940F2A91001F004FF009B5A1C0A9B10
:106C84001340069A1104079A0A431D4902339B00D4
:106C94000B445A60009A0A9B134002339B00184A23
:106CA400134404330593039BDBB203F00703D9B207
:106CB400059A137861F3C5031370019BDBB203F0EB
:106CC4000F03D9B2059A138861F389131380029BC9
:106CD400C3F31501059A136861F39F231360059AA2
:106CE4001378012161F301031370059A13786FF38C
:106CF4008203137000BF09B05DF804FB7C1E03001F
:106D04006034002000B58DB00390029113468DF8D5
:106D14000730039B02330A9301238DF827300023A5
:106D24008DF81B300DF11B03184601F05DFE414B3D
:106D34001A68029B1A603F4B9A683E4B59683D4B58
:106D44001B68CB1A134401330B9314E001213A4816
:106D540001F0F5FEFFF7DCFE08900899364801F0D3
:106D6400EEFE344B9A68334B5968324B1B68CB1A8E
:106D7400134401330B930A9A0B9B9A42E6D89DF86D
:106D84002730002B4AD0002305939DF80730002BB1
:106D940018D09DF81430012262F301038DF81430E9
:106DA4009DF8143043F004038DF81430039BDBB2D8
:106DB40003F00F03DAB2BDF8143062F38913ADF8AF
:106DC400143017E09DF81430022262F301038DF8A9
:106DD40014309DF8143043F004038DF81430039BF1
:106DE4009BB2C3F309039AB2BDF8163062F38F1352
:106DF400ADF816300F4B1A680E4B9B6813400233E4
:106E04009B000C4A134404330793059A079B1A60AA
:106E1400084B1A680A9B1344064A13609DF81B30FA
:106E2400184601F0F7FD9DF8273018460DB05DF8BF
:106E340004FB00BF603400207C38002000B58BB018
:106E440005900491039202931F4B9B68079306AB32
:106E5400012219460298FFF755FF0346002B24D060
:106E6400069B023309930023089311E0099B5A1CE3
:106E74000992079A1340089A920003990A441268E7
:106E8400114902339B000B445A60089B0133089359
:106E9400089A029B9A42E9D3069A079B00931346E9
:106EA400029A04990598FFF7D1FE074B93F8203412
:106EB400002B05D000BF00F081F80346002BFAD167
:106EC40000BF0BB05DF804FB6034002000B583B054
:106ED400019000910023002200990198FFF7AEFF72
:106EE40000BF03B05DF804FB00B587B003900291C6
:106EF4000192019B059305AA012302990398FFF7C8
:106F04009DFF00BF07B05DF804FB00B587B0039098
:106F1400029101920093019B0493009B059304AAA0
:106F2400022302990398FFF789FF00BF07B05DF8B9
:106F340004FB00B58BB00390029101920093019B76
:106F44000593009B06930C9B07930D9B08930E9B44
:106F5400099305AA052302990398FFF76FFF00BF61
:106F64000BB05DF804FB00B58BB003900291019265
:106F74000093019B0493009B05930C9B06930D9B2C
:106F840007930E9B08930F9B099304AA0623029967
:106F94000398FFF753FF00BF0BB05DF804FB00003C
:106FA400054B5A68044B1B689A420CBF012300230B
:106FB400DBB21846704700BF6034002000B599B0BA
:106FC400FFF7EEFF0346002B01D00023B8E19A4BF4
:106FD4000022C3F81824BFF34F8F974B5B680493C8
:106FE400954B9B681093049A109B134002339B00AB
:106FF400914A1344043317930023169300231593E3
:1070040000230F9304AB19461798FFF71FFD03469F
:10701400002B14D0884B1A68049B9A4205D8864BDF
:107024001B68854A536000238AE1049A109B13402D
:1070340002339B00804A134404331793E2E700BFF2
:107044000023149311E0149B9B0001AA1A44049B8F
:10705400591C049110990B40774902339B000B444F
:107064005B681360149B01331493149B012BEAD9BE
:107074009DF8043003F00303DBB2022B40F09C8044
:10708400BDF80630C3F389139BB20E93BDF80630E6
:10709400C3F389139BB2502BA8BF50230D930D9BB0
:1070A4009BB2C3F309039AB2BDF8063062F38F139F
:1070B400ADF806300D9B08330C939DF80430C3F3F0
:1070C400C203DBB20F930C995C4803F0C0FE169028
:1070D400169B002B00F0D480169803F048FF01A9FA
:1070E400159B0822169803F0EBFF159B08331593A4
:1070F400049BDA43109B134001339B000B930D9ABE
:107104000B9B9A4242D90B9B002B08D0049A109BEC
:10711400134002339B00484A1344043300E0484BB5
:107124000A930B9B002B02D00B9BDBB201E00D9B5F
:10713400DBB28DF827300B9B002B01D0404B00E0D5
:10714400002308930B9B002B06D00D9BDAB20B9BFC
:10715400DBB2D31ADBB200E000238DF81F309DF8B8
:107164002720159B0A99169803F0AAFF9DF827304B
:10717400159A13441593089B002B16D09DF81F20D5
:10718400159B0899169803F09BFF0EE0049A109B38
:10719400134002339B00284A134404330693159B7F
:1071A4000D9A0699169803F08BFF0E9B03339A08E9
:1071B400049B1344049363E09DF8043003F0030339
:1071C400DBB2012B5CD1BDF80430C3F38313DBB213
:1071D400062B28BF0623DBB203F00F03DAB2BDF897
:1071E400043062F38913ADF80430BDF80430C3F3FE
:1071F4008313DBB2023305939DF80430C3F3C20357
:10720400DBB20F93059B9B0019460C4803F01FFE4D
:107214001690169B002B33D0169803F0A8FE01A9F4
:10722400159B0822169803F04BFF159B0833159302
:10723400002314931BE000BF60340020D41C03001F
:107244006C340020049B5A1C0492109A134002339D
:107254009B003D4A1344191D159B0422169803F004
:107264002FFF159B04331593149B01331493BDF81E
:107274000430C3F38313DBB21A46149B9A42E1D859
:10728400169B002B3FD0304BD3F8103413932E4B66
:10729400D3F81834002B1AD0169803F077FE49E07F
:1072A40000238DF84B301398FFF7EBFA0346002BBD
:1072B40002D001238DF84B309DF84B30002B03D0C6
:1072C40016991398FFF79CFA139B5B681393139B0F
:1072D400002BE5D1169803F059FE00238DF80330F6
:1072E4000DF10303184601F07FFB174BD3F8183454
:1072F400002B02D1049B144A53609DF803301846B6
:1073040001F088FB16E0104BD3F81034119305E01C
:107314001198FFF78FFA119B5B681193119B002B57
:10732400F6D10A4B1B881B0443F002030849184694
:10733400FFF7CCFDFFF734FE034683F00103DBB215
:10734400184619B05DF804FB603400205032002068
:10735400D81E030000B585B00023039322E0164B2A
:10736400D3F81034029301238DF807300EE002980D
:10737400FFF778FA03461A46039B9A4203D1002387
:107384008DF8073005E0029B5B680293029B002B9B
:10739400EDD19DF80730002B01D0039B07E0039B40
:1073A40001330393039B092BD9DD4FF0FF331846B8
:1073B40005B05DF804FB00BF6034002000B585B063
:1073C40001900B468DF80330FFF7C4FF0390039B35
:1073D400B3F1FF3F01D1039B1EE0039BDBB21946CF
:1073E4000198FFF733FA0E4BD3F81034002B07D172
:1073F4000B4A019BC2F81034019B00225A600AE038
:10740400074BD3F810345A68019B5A60044BD3F8E5
:107414001034019A5A60039B184605B05DF804FBCA
:107424006034002000B583B00C4BD3F810340193C2
:107434000A4B012283F8202408E00198FFF719FA87
:107444000198FFF7EBF9019B5B680193019B002B0B
:10745400F3D100BF03B05DF804FB00BF603400202B
:1074640082B00190009100BF02B0704710B584B0A3
:1074740003900291039BDB88002B0AD0039BDB88DB
:107484001A461F4B009313461E4A1F49029803F0E5
:10749400D5F8039B1B7A052B2ED0039B5B7A002B1C
:1074A40012D0039B9B881A46039B1B7A19461046ED
:1074B400FFF794FA03461A46144B53F822301A463F
:1074C4001349029803F0BAF8039B1B681946029803
:1074D400FFF7C6FF039B1B7A1A460E4B53F8224054
:1074E400039B9B8800211846FFF758FA034622465F
:1074F4000949029803F0A2F800BF04B010BD00BF10
:107504000C1F03001C1F0300541F0300AC32002097
:107514006C1F030098320020701F030000B585B073
:107524000390029113468DF80730039B1B7A052BB9
:107534000FD0039B5B7A002B06D00D4B1B681A46B9
:107544000C49029803F07AF80B49029803F076F894
:1075540007E09DF80730002B03D00749029803F099
:107564006DF8029803F048F800BF05B05DF804FB1D
:10757400AC3200206C1F03007C1F030030B58BB0BD
:1075840007900691059204930E9B1B7B8DF8273080
:107594000E9B00221A730E990498FFF767FF059B50
:1075A400062B7FD801A252F823F000BFCD7502004C
:1075B400D7750200E7750200FB7502001976020018
:1075C400417602007176020007990E9803F036F8AE
:1075D40069E0069B1B681A4607990E9803F02EF87B
:1075E40061E0069B1A68069B04331B6807990E9892
:1075F40003F024F857E0069B1A68069B04331968C5
:10760400069B08331B6800930B4607990E9803F0FA
:1076140015F848E0069B1968069B04331868069B16
:1076240008331B68069A0C321268019200930346D1
:107634000A4607990E9803F001F834E0069B18688F
:10764400069B04331C68069B08331B68069A0C329D
:107654001268069910310968029101920093234639
:10766400024607990E9802F0E9FF1CE0069B1C688D
:10767400069B04331D68069B08331B68069A0C326C
:10768400126806991031096806981430006803904E
:107694000291019200932B46224607990E9802F01C
:1076A400CDFF00E000BF00220E990498FFF736FFDB
:1076B4000E9B9DF827201A7300BF0BB030BD00BF8E
:1076C40000B587B00390029101920093029B082BAE
:1076D4005CD8009B1B7B8DF81330009B00221A732F
:1076E40000990198FFF7C2FE0023059314E0059A60
:1076F400029B9A4209D2039A059B13441B781A46AB
:107704002449009802F09AFF03E02349009802F00C
:1077140095FF059B01330593059B072BE7D91F496B
:10772400009802F08BFF0023059322E0059A029B48
:107734009A4217D2039A059B13441B788DF8123092
:107744009DF8123018460AF092F90346002B02D035
:107754009DF8123000E02E231A461149009802F0D9
:107764006DFF03E00F49009802F068FF059B0133A9
:107774000593059B072BD9D9012200990198FFF79E
:10778400CDFE009B9DF813201A7300E000BF07B0E4
:107794005DF804FB801F0300881F03008C1F030097
:1077A400901F0300941F03002DE9F04F89B001904E
:1077B40000238DF81F3098E0514B1A689DF81F3054
:1077C400DB0013440693069B1B7819464FF0010215
:1077D4004FF00003A1F1200EC1F1200003FA01F9DA
:1077E40002FA0EFE49EA0E0922FA00F049EA0009FB
:1077F40002FA01F8CDE90489424BD3E90001DDE93D
:10780400042302EA000203EA0103134368D0DDE91A
:1078140004236FEA02006FEA03013A4BD3E9002321
:1078240002EA000203EA01033649C1E90023069B88
:107834001B78184605F048FB03468DF80F30069B6D
:107844001B7819464FF001024FF00003A1F1200EFE
:10785400C1F1200003FA01F502FA0EFE45EA0E0515
:1078640022FA00F0054302FA01F4274BD3E900237E
:1078740004EA020A05EA030B9DF80F204FF0000307
:1078840006990978A1F1200EC1F1200003FA01F74D
:1078940002FA0EFE47EA0E0722FA00F0074302FA44
:1078A40001F6BB4508BFB2451AD19DF80F30069AC0
:1078B4005278012A0CBF01220022D2B293420CBF9B
:1078C40001230023DBB20293069B5B68002B07D0E5
:1078D400069B5B68069A12780299C9B210469847CB
:1078E4009DF81F3001338DF81F30084B1B789DF82D
:1078F4001F209A42FFF460AF00BF09B0BDE8F08FCB
:1079040084380020B8380020B0380020883800209F
:1079140070B586B001900A468DF803204FF001013E
:107924004FF000020198A0F12006C0F1200502FAF0
:1079340000F401FA06F6344321FA05F52C4301FA62
:1079440000F3CDE904342F4B184600F0B9FF03903F
:10795400039B002B53D12C4BD3E90012DDE90434F3
:1079640003EA010304EA0204234337D1019805F032
:10797400ABFA0346002B0CD0244BD3E90012DDE90B
:10798400043443EA010344EA0204204AC2E900340D
:107994000FE0DDE904346FEA03016FEA04021B4BD4
:1079A400D3E9003403EA010304EA0204174AC2E9F2
:1079B4000034154BD3E90012DDE9043443EA010332
:1079C40044EA0204104AC2E900340E48104B1B6812
:1079D4000022194600F042FF039011E0DDE904346F
:1079E4006FEA03016FEA0402074BD3E9003403EAA8
:1079F400010304EA0204044AC2E9003400E000BFBF
:107A040006B070BD90380020B8380020B03800208F
:107A14008C38002010B58AB003900B4601928DF883
:107A24000B30019B042B01D807235AE005F03EF9E3
:107A3400034683F00103DBB2002B09D005F0E4F820
:107A44000990099B0893089B002B01D0089B48E0F0
:107A5400254A039B1360254A9DF80B301370244A72
:107A6400019B1360234A4FF000034FF00004C2E966
:107A74000034214A4FF000034FF00004C2E90034FF
:107A840022E09DF80B30DB00039A1344079305AB07
:107A940000210A461A800A469A7003238DF814308E
:107AA400079B9B788DF81530079B1B78184605AB10
:107AB400124A194605F006F90990099B0693069B9C
:107AC400002B01D0069B0CE09DF80B305A1E8DF85C
:107AD4000B20002BD5D10A4A00210A4800F08EFE63
:107AE400034618460AB010BD8438002088380020A8
:107AF4008C380020B0380020B838002015790200F6
:107B0400AD770200981F030000B583B0114B1B68CA
:107B1400002B03D11049BA2000F0B3FF00230193D6
:107B24000CE00C4B1A68019BDB0013441B78012109
:107B3400184605F041F9019B01330193074B1B786B
:107B44001A46019B9A42ECD80023184603B05DF80C
:107B540004FB00BF843800209C1F030088380020E9
:107B640086B003900291019201238DF817309DF89D
:107B740017301F4A039B13601D4A029B53601C4A23
:107B8400019B9360039B44F20102934212D044F29E
:107B94000202934221D1019B154AD360144BDB6846
:107BA4001B881A46124B9A61114BDB685B68104ABA
:107BB400D36112E0019B0E4A13610D4B1B699B6854
:107BC4000B4A53610A4B1B691B68094A9361084BB2
:107BD4001B695B68064AD36100BF72B600BF9DF89B
:107BE4001730DBB2002BFAD162B600BF06B0704783
:107BF400C038002000B583B002900091019244F295
:107C0400010071466A4600F003F803B000BD00BFEE
:107C140030B58BB007900691059272B6FFF702FC5F
:107C240000BFFFF7CBF90346002BFAD1079B41F2C3
:107C34000102934219D041F20102934202D8012B6E
:107C440009D057E044F20102934229D044F20202DF
:107C5400934214D04EE0344B1B881B0443F00103C1
:107C640032491846FFF732F94FE02F4B1B881B04AB
:107C740043F001032E491846FFF728F945E0059B18
:107C84000993294B1B881B0443F001031846099BE5
:107C94005B681A46099B1B882649FFF736F934E0CE
:107CA400059B0893204B1B881B0443F001031D46CE
:107CB400089B9C68089B9B68184603F017FC0346C6
:107CC4001846089B5B681946089B1B68069A029233
:107CD400019300910346224617492846FFF729F9E4
:107CE400114B1B881B0443F0010314491846FFF78A
:107CF400EDF80AE00C4B1B881B0443F00103069AC1
:107D04000F491846FFF7F0F800BF0E4B1B6803F04D
:107D14000103002B00D000BE059A06990798FFF7CF
:107D24001FFF00BF0BB030BD50320020E41F030022
:107D34000420030028200300442003006C200300D7
:107D440080200300F0ED00E082B003468DF8073098
:107D540007499DF907305B099DF8072002F01F02CF
:107D6400012000FA02F241F8232000BF02B070475C
:107D740000E100E082B003468DF8073008499DF920
:107D840007305B099DF8072002F01F02012000FA6A
:107D940002F2203341F8232000BF02B0704700BF35
:107DA40000E100E082B003468DF8073008499DF9F0
:107DB40007305B099DF8072002F01F02012000FA3A
:107DC40002F2403341F8232000BF02B0704700BFE5
:107DD40000E100E082B003468DF8073008499DF9C0
:107DE40007305B099DF8072002F01F02012000FA0A
:107DF40002F2603341F8232000BF02B0704700BF95
:107E040000E100E082B0034600918DF807309DF94F
:107E14000730002B0CDA0D499DF8073003F00F03EF
:107E2400043B009AD2B25201D2B20B441A7609E052
:107E340007499DF90730009AD2B25201D2B20B44DD
:107E440083F8002300BF02B0704700BF00ED00E0DC
:107E540000E100E000B585B00190019B002B0AD041
:107E6400074B43F001030393019B9B010293039B84
:107E74000298984700E000BF05B05DF804FB00BF1E
:107E8400A020030000B583B00190064A019BC2F80C
:107E9400083507211120FFF7B5FF00BF03B05DF8D7
:107EA40004FB00BF0010014008B50D4B4FF48032B5
:107EB400C3F844230A4B4FF48032C3F8042311203F
:107EC400FFF788FF1120FFF73FFF054B01221A60DF
:107ED4002F20FFF7BFFF034B01221A7000BF08BD1C
:107EE40000100140FE39002008B51120FFF742FFC1
:107EF4000E4B4FF48032C3F848230C4B4FF48032BE
:107F0400C3F80823094B01225A602F20FFF7A2FF70
:107F1400064B01229A60064B00221A602F20FFF7BD
:107F240099FF044B00221A7000BF08BD00100140E5
:107F3400F0390020FE390020024BD3F804351846EE
:107F4400704700BF0010014082B001900091019A77
:107F5400009BD31A23F07F43184602B070470000F9
:107F640082B00190034A019BC2F8403500BF02B0C1
:107F7400704700BF0010014086B00190284B1B6879
:107F8400002B03D1264A019B136045E0019B1A682C
:107F9400234B1B681B689A4210D8214B1B68204A4C
:107FA40012681168019A12688A1A1A601C4B1A68BE
:107FB400019BDA611A4A019B13602DE0019B1B6847
:107FC4000393174B1B680593154B1B68049309E037
:107FD400049B1B68039AD31A0393049B0593049B85
:107FE400DB690493049B002B04D0049B1A68039B55
:107FF4009A42EDD3049B002B05D0049B1A68039B83
:10800400D21A049B1A60019B039A1A60019B049A7A
:10801400DA61059B019ADA6100BF06B0704700BFC0
:10802400EC39002000B587B001902A4B1B680393FC
:10803400284B1B680593059B049308E0049A019B55
:108044009A4208D0049B0593049BDB690493049B28
:10805400002BF3D100E000BF049B002B01D10023CF
:1080640033E0059A049B9A4214D11A4B1B68DB69CE
:10807400184A1360174B1B68002B0BD1164B0122B7
:108084009A60164B00221A60154B01221A702F2099
:10809400FFF7E0FE049B1B680293049BDA69059BCF
:1080A400DA61059BDB690493049B002B05D0049BD8
:1080B4001A68029B1A44049B1A60064B1B68039AB5
:1080C4009A4214BF01230023DBB2184607B05DF8BF
:1080D40004FB00BFEC39002000100140F0390020FF
:1080E400FF39002008B51120FFF75CFE00BF08BD72
:1080F40008B51420FFF756FE00BF08BD00B583B0D5
:108104000190019B5B69019A92691046984700BFF0
:1081140003B05DF804FB000000B585B02B4B1B6871
:10812400002B4ED000230193FFF706FF0246284B95
:108134001B6819461046FFF707FF0290234B1B6884
:1081440003931DE0039B1A68029B9A421CD8039B6D
:108154001B68029AD31A0293039B1B68019A134467
:108164000193039B0093039BDB690393009B1B7C9C
:10817400002B05D0009B00221A740098FFF7BEFF65
:10818400039B002BDED100E000BF124B1A78124B88
:108194001B789A420CD1104B1B780133DAB20E4B88
:1081A4001A700D4B1B78022B02D10B4B00221A7054
:1081B400094B1B781946094A019B42F82130FFF705
:1081C40097FF00BF05B05DF804FB00BFEC39002049
:1081D400F0390020FC390020FD390020F43900205A
:1081E40082B00190184B1A78184B1B789A4223D00E
:1081F400154B1B780133DAB2134B1A70124B1B78F0
:10820400022B02D1104B00221A700F4B1B781A4616
:108214000F4B53F82220019B1A60019B1A680D4BE7
:108224001B6813440B4A13600A4B1B6823F07F43FB
:10823400084A1360012303E0019B00221A60002313
:10824400184602B0704700BFFC390020FD390020F9
:10825400F4390020F039002088B003900291019293
:108264000023079338E0204B1B680693069B1A688B
:10827400039B9A4206D9069B1A68039BD21A069B53
:108284001A602DE0069B1B68039AD31A0393069B7E
:108294001B68079A13440793069B00221A60124B2B
:1082A4001B680593069BDB690F4A1360069BDB681A
:1082B400002B11D0029A079B134423F07F42069BA4
:1082C4005A60069BDA68069B9A60019B1A68069BB3
:1082D400DA61019B059A1A60034B1B68002BC2D11B
:1082E40000BF08B0704700BFEC39002000B589B06A
:1082F400019000238DF81F30664B1B680593AAE09C
:10830400019B002B05D0019B0693069BDB6901931F
:1083140061E0614B1B781A4613465B001344DB0093
:108324005D4A1344043304935B4B1B780133DAB284
:10833400594B1A70584B1A78574B9B789A4202D172
:10834400554B00221A70049B5B680693049B1B78B0
:10835400022B04D0032B1BD0012B1FD01DE0049B48
:108364005B681846FFF75EFE0346002B02D001232C
:108374008DF81F30069B00221A746CE0454B1B6875
:108384000393039B00221A74039BDB69414A136025
:10839400404B1B68002BF1D15DE05CE000BF069B05
:1083A4001B7C002B00D056E0049B9A68069B5A6005
:1083B400049BDA68069B9A60049B1A69069BDA6040
:1083C400049B5A69069B9A61344B1B78002B02D09C
:1083D400069B00225A60069B5A68314B1B68D31ACD
:1083E40023F07F432F4A93420ED8069B5A682C4BA6
:1083F4001B6819461046FFF7A7FD0246069B9B68BB
:108404001A44069B1A6017E0254B1A68069B5B68A2
:1084140019461046FFF798FD0290069B9A68029B46
:108424009A4206D9069B9A68029BD21A069B1A6046
:1084340002E0069B00221A60069B00225A60069BFB
:1084440000229A60069B01221A74069B0022DA61BC
:108454000698FFF791FD019B002B7FF451AF0E4B63
:108464001A780D4B5B789A427FF44AAF9DF81F301F
:10847400002B04D1074B1A68059B9A4201D00123B3
:1084840000E0002303F00103DBB2184609B05DF8F5
:1084940004FB00BFEC390020E0380020FF39002045
:1084A400F0390020FEFF7F0010B588B00190274B03
:1084B4001B68002B44D0254B1B681B680793FFF7F0
:1084C4003BFD0690224B1B68059305990698FFF720
:1084D4003BFD0346033304931E4B1B7883F00103D7
:1084E400DBB2002B01D0FFF7DFFC049A079B934219
:1084F40038BF1346059A13440593059B23F07F4325
:1085040005930598FFF72CFDFFF716FD03900699D8
:108514000398FFF719FD0346DC1C06990598FFF73D
:1085240013FD03469C420DD9FFF706FD034618468A
:10853400FFF716FD2F20FFF78DFCFFF7D3FD01E0B9
:10854400FFF7D2FC00BF08B010BD00BFEC3900201B
:10855400F0390020FE39002000B587B000230193D4
:1085640000238DF81730194B1B680493184B1B68B4
:1085740003936B461846FFF733FE03468DF80B3022
:108584009DF80B30002B08D0009B01AA04991846D3
:10859400FFF762FE01238DF81730019B1846FFF7A1
:1085A400A5FE0346002B02D001238DF817309DF859
:1085B4001730002B02D00398FFF776FF054B0022FB
:1085C4001A7000BF07B05DF804FB00BFF03900204B
:1085D400EC390020FF39002082B003468DF80730C3
:1085E400034A9DF80730537000BF02B0704700BFC4
:1085F400E038002084B00190144B5B7801338DF88F
:108604000F30124B9B789DF80F209A4202D1002321
:108614008DF80F300D4B1B789DF80F209A4201D135
:1086240000230FE0019B9DF80F201A70074B5B7825
:108634001A4613465B001344DB00044A1344043314
:108644000293029B184604B0704700BFE038002034
:1086540000B589B00390029101920093002307931F
:1086640000238DF816300DF11603184600F0BCF9FE
:108674000DF117031846FFF7BDFF0690069B002B6C
:1086840002D10423079318E0069B01221A70069B6B
:10869400039A5A60FFF750FC0246069B9A60069BB9
:1086A400029ADA60069B019A1A61069B009A5A6143
:1086B4009DF817301846FFF78FFF9DF816301846BF
:1086C40000F0A8F9079B002B01D1FFF711FD079BD0
:1086D400184609B05DF804FB00B587B001900B465D
:1086E4008DF803300023059300238DF80E300DF12F
:1086F4000E03184600F078F90DF10F031846FFF742
:1087040079FF0490049B002B02D1042305930BE012
:10871400049B9DF803201A70049B019A5A609DF8EB
:108724000F301846FFF758FF9DF80E30184600F03A
:1087340071F9059B002B01D1FFF7DAFC059B184664
:1087440007B05DF804FB000008B50E4B0022C3F827
:1087540040210C4B0022C3F844210A4B0022C3F8E9
:108764004821084B0022C3F84C21064B0022C3F8D1
:108774000021044B0022C3F80421FFF7CDFC00BF05
:1087840008BD00BF0010014008B5FFF7E5FE00BFBB
:1087940008BD000008B5FFF7A7FB134B00221A70B1
:1087A400114B00225A70104B0B229A700F4B00226F
:1087B4001A600F4B00221A700E4B00221A701420FC
:1087C400FFF708FB07211420FFF71CFB1420FFF719
:1087D400BBFA0020FFF756FBFFF7AEFB0246064B41
:1087E4001A600023184608BDE0380020EC39002048
:1087F400FC390020FD390020F039002086B00390B8
:108804000B4601928DF80B30134B9B78002B01D152
:1088140008231EE0019B002B01D1072319E0039BD1
:10882400002B01D1072314E0039B1B681B7C002B46
:1088340001D008230DE0039B1B680593059B0022D0
:108844001A74059B9DF80B205A74059B019A5A6172
:108854000023184606B07047E038002000B587B002
:10886400039002910192039B0593144B9B78002B78
:1088740001D108231EE0039B002B01D1082319E03A
:10888400029B042B01D8072314E0059B5B69002B92
:1088940001D108230EE0059B5B7C012B01D1029BD7
:1088A40000E000230493019B049A02990598FFF7C2
:1088B400CFFE0346184607B05DF804FBE0380020FD
:1088C40000B585B00190019B03930D4B9B78002B61
:1088D40001D1082310E0019B002B03D0039B5B69AB
:1088E400002B01D1082307E0039B00221A74022104
:1088F4000398FFF7F1FE0346184605B05DF804FB44
:10890400E038002082B0EFF310830093009B0193C2
:1089140072B6019B184602B0704762B600BF70473A
:1089240000B585B00190FFF7EDFF0390164B9B68EF
:10893400002B1BD1144B01229A60144BD3F88020D6
:10894400134B1340104A1360104B114AC3F8802094
:108954000E4BD3F884300C4A53600C4B4FF0FF326B
:10896400C3F88420019B00221A7002E0019B0122BB
:108974001A70039B002B01D1FFF7CFFF0023184689
:1089840005B05DF804FB00BF003A002000E100E000
:10899400FC06FFBD00B585B003468DF80730104BCB
:1089A4009B68002B16D09DF80730002B12D1FFF7DF
:1089B400A9FF03900B4A0A4B1B681360094A084B32
:1089C4005B685360064B00229A60039B002B01D125
:1089D400FFF7A3FF0023184605B05DF804FB00BFB2
:1089E400003A002000E100E000B583B0019000F0FF
:1089F4002BF80346012B03D00549432000F041F82E
:108A04000198FFF78DFF00BF03B05DF804FB00BFC2
:108A1400A820030000B583B003468DF8073000F0AA
:108A240013F80346012B03D00649512000F029F81E
:108A34009DF807301846FFF7ADFF00BF03B05DF89F
:108A440004FB00BFA820030084B0EFF30583019367
:108A5400019BC3F308030393039B002B0DD1EFF396
:108A640014830093009B0293029B03F00103002BE9
:108A74000CBF01230023DBB200E00123184604B03D
:108A8400704700B585B003460091ADF80630BDF8D7
:108A94000630ADF80830009B039302AB1A46002160
:108AA40044F20200FFF7B4F800BF05B05DF804FB20
:108AB40010B487B001900091019B009A53E8004FD5
:108AC400104643E8000191F0000FF7D1059404909B
:108AD4000391059B184607B05DF8044B704710B42A
:108AE40087B001900091019B009A53E8004F44EA3B
:108AF400020043E8000191F0000FF6D105940490C0
:108B04000391049B184607B05DF8044B704710B4FA
:108B140087B001900091019B009A53E8004F04EA4A
:108B2400020043E8000191F0000FF6D1059404908F
:108B34000391059B184607B05DF8044B704710B4C9
:108B440087B001900091019B009A53E8004F04EB19
:108B5400020043E8000191F0000FF6D1059404905F
:108B64000391049B184607B05DF8044B704710B49A
:108B740087B001900091019B009A53E8004FA4EB49
:108B8400020043E8000191F0000FF6D1059404902F
:108B94000391049B184607B05DF8044B704700B579
:108BA40083B0019001210198FFF799FF034618460D
:108BB40003B05DF804FB00B583B001900021019877
:108BC400FFF7A5FF0346184603B05DF804FB000059
:108BD40000B583B00190019B002B04D1054940F2FC
:108BE4004510FFF74EFF019B1B681B79184603B025
:108BF4005DF804FBF820030000B583B00190019BED
:108C0400002B04D1084940F25510FFF73AFF019BAD
:108C14009B681A46019B1B681B68D31ADBB2184673
:108C240003B05DF804FB00BFF820030082B001909C
:108C3400019B9B68D3F83C31C3F34003DBB2002BA8
:108C440014BF01230023DBB2184602B070470000B2
:108C540000B597B00B900A9109920B98FFF7E6FFC5
:108C64000346002B05D0002200210B9800F0E4FEFF
:108C740062E00A9B012B05D9314A02210B9800F0CE
:108C8400AFFD59E02F4A304BD31A9B082F4AA2FB61
:108C940003231493002315934AE0159A1346DB002B
:108CA4009B1A9B001A46284B13441393139B1B8B4C
:108CB4001293139B1B8B1A46129BD31A1193139B6B
:108CC4009B681A46139B5B68D31A10931398FFF79B
:108CD4007FFF03460F931398FFF78EFF03460E930F
:108CE400139B5B690D930E9B642202FB03F2109BA2
:108CF400B2FBF3F30F9A642101FB02F1109AB1FB6A
:108D0400F2F2109907910F9906910592109A049224
:108D14000E9A03920293119B0193129B00930D9B55
:108D24000B4A08210B9800F05BFD159B013315934A
:108D3400159A149B9A42B0D317B05DF804FB00BF98
:108D440040210300F01C0300D41C03002549922495
:108D54005421030000B583B001900B468DF8033015
:108D6400019B002B03D10849E820FFF78AFE019BF1
:108D7400DA689DF803300199098B01FB03F313446E
:108D8400184603B05DF804FB3822030000B583B035
:108D940001900091019B002B03D10849F520FFF7B6
:108DA40070FE009B019AD2689B1A019A128BB3FB46
:108DB400F2F3DBB2184603B05DF804FB382203007B
:108DC40000B585B00190019B002B01D10E234DE02D
:108DD400019B1B68002B03D12649FF20FFF751FE9E
:108DE400019B5B68002B04D122494FF48070FFF78C
:108DF40048FE019B9B68002B04D11E4940F20110E0
:108E0400FFF73FFE019BDB68002B04D119494FF4A7
:108E14008170FFF736FE019B1B8B002B04D1154993
:108E240040F20310FFF72DFE019B9B681A46019B3D
:108E34005B68D31A8DF80F30019B1B68019A526846
:108E44001A6007E0019B1A681368591C11609DF8A9
:108E54000F201A709DF80F305A1E8DF80F20002B2A
:108E6400F0D1019B1B6800221A710023184605B03B
:108E74005DF804FB3822030000B585B00190019B26
:108E8400002B04D120494FF49270FFF7FAFD002320
:108E9400039300238DF80A300DF10A031846FFF7F7
:108EA400A3FD019B1B681A68019B5B689A4220D949
:108EB400019B1B681A68013A1A601B681B781946E3
:108EC4000198FFF747FF0390019B9B681A46019B9B
:108ED4001B681B68D31A8DF80B30019B1B681B7928
:108EE4009DF80B209A4204D9019B1B689DF80B2026
:108EF4001A719DF80A301846FFF78CFD039B18463B
:108F040005B05DF804FB00BF3822030010B584B03F
:108F140001900091019B002B04D1154940F24710A8
:108F2400FFF7AFFD009B002B04D111494FF4A4704F
:108F3400FFF7A7FD009B039300238DF80B300DF181
:108F44000B031846FFF750FD019B1B681C68621C4D
:108F54001A6003990198FFF719FF034623709DF8DF
:108F64000B301846FFF756FD00BF04B010BD00BF1C
:108F74003822030082B00190019B9B68D3F83C31F6
:108F8400C3F34003DBB2002B14BF01230023DBB285
:108F9400184602B07047000000B585B00190019BEF
:108FA400002B0AD0074B43F001030393019B9B0161
:108FB4000293039B0298984700E000BF05B05DF858
:108FC40004FB00BF4029030000B583B00190019B5E
:108FD4001B69184601F010FB00BF03B05DF804FBE9
:108FE40082B00190019B9A6892F83C3143F00803E7
:108FF40082F83C3100BF02B0704782B00190019BFF
:109004009A6892F83C316FF3C30382F83C3100BF95
:1090140002B0704782B00190019B9B68D3F83C3149
:10902400C3F3C003DBB2184602B0704700B583B087
:109034000190019B002B04D0019808F0C5FD034664
:1090440000E00023184603B05DF804FB10B588B0B7
:109054000390029101920093039B002B02D0029B88
:10906400002B03D12C49E120FFF70BFD039B5B6828
:109074001B68002B03D12849E220FFF702FD0023DF
:1090840007933DE0039B5B681B68DC68039B58689F
:10909400029A079BD11805AB019AA0470690069B3C
:1090A400002B03D01C49EC20FFF7EBFC059B019A35
:1090B4009A4203D21849ED20FFF7E3FC059B079A77
:1090C40013440793059B019AD31A0193059B002B24
:1090D40016D1039B9B681B78032B11D000BF039B05
:1090E4009B68D3F83C31C3F34013DBB2002BF6D0BA
:1090F400039B9A6892F83C316FF3451382F83C3134
:10910400019B002BBED1009B002B02D0059A009B33
:109114001A6000BF08B010BDB822030000B583B0C8
:1091240001900B468DF80330019B1B699DF80320C9
:109134000349184601F082FA00BF03B05DF804FB4E
:10914400FC22030010B586B00390029101920093B3
:10915400039B002B02D0029B002B04D10D494FF43A
:109164008870FFF78EFC039B5B68002B04D10949D0
:1091740040F21110FFF785FC039B5B681B681C69B8
:10918400039B5868009B019A0299A047059000BF71
:1091940006B010BDB822030000B589B00390029157
:1091A40001920093009B002B04D13B4940F225100F
:1091B400FFF767FC0A9B002B04D137494FF49370E7
:1091C400FFF75FFC029B002B34D1344A344BD31A93
:1091D400DB08019A9A4229D200230693314B059366
:1091E400002307931BE0079BDB002D4A13440693DF
:1091F400019B9B00059A13441A68069B5B681B68D5
:109204001946104608F0B8FC0346002B04D1069B0F
:109214005A68009B1A603CE0079B013307931F4A7E
:109224001F4BD31ADB08079A9A42DCD3009B002217
:109234001A602EE0039B002B03D1009B00221A60CE
:1092440027E0039B1B78002B10D0039B5B680A99D3
:10925400019898470A9B1B68002B03D1009B0022AE
:109264001A6016E0009B0A9A1A6012E0039B5A687F
:10927400019B1B0113441B68002B07D0039B5A68F6
:10928400019B1B011A44009B1A6002E0009B002210
:109294001A6009B05DF804FBB82203006C1C0300DB
:1092A4003C1C03002032002000B583B00190019BD8
:1092B400002B04D10C494FF4CE70FFF7E2FB019B65
:1092C4001B69002B04D108494FF4CE70FFF7D9FB7A
:1092D400019B1B69054A0649184601F0AFF900BF16
:1092E40003B05DF804FB00BFB82203002C2903007F
:1092F4000023030000B583B001900B468DF80330C2
:109304009DF80330002B07D0019B1B699DF80320B7
:109314000349184601F092F900BF03B05DF804FB5D
:109324000423030000B583B001900B468DF803308D
:109334009DF80330002B07D0019B1B699DF8032087
:109344000349184601F07AF900BF03B05DF804FB45
:109354000C23030000B583B001900B468DF8033055
:109364009DF80330002B07D0019B1B699DF8032057
:109374000349184601F062F900BF03B05DF804FB2D
:109384001423030000B583B001900B468DF803301D
:109394009DF80330002B07D0019B1B699DF8032027
:1093A4000349184601F04AF900BF03B05DF804FB15
:1093B4001C23030000B587B001900023ADF81630DC
:1093C4000023ADF8143000238DF80B3000238DF802
:1093D4001330019B9B68943380220021184608F0C7
:1093E40075FB019B1B697749184601F027F9019821
:1093F400FFF7EAFD0023ADF81030D7E003AB0DF121
:109404000B0101220198FFF79DFE039B002B04D161
:1094140040F2E730FFF7C0FDBFE09DF80B301B2B97
:1094240006D0019B9B6893F894301B2B40F0B480CA
:109434009DF80B30522B40F09580019B9A689DF863
:1094440013301344002283F89420019B9B6893F803
:1094540095305B2B06D0019B9B68002283F89420F7
:109464000B23AAE002238DF813301CE0BDF814305E
:109474001A46920013445B009AB2019B99689DF8C6
:109484001330581C8DF813000B4493F894309BB29E
:1094940013449BB2303BADF814309DF91330002BCC
:1094A40001DA0C2389E0019B9A689DF81330134478
:1094B40093F894303B2BD9D19DF8133001338DF8B8
:1094C40013309DF91330002B1EDA0C2375E0BDF820
:1094D40016301A46920013445B009AB2019B9968B5
:1094E4009DF81330581C8DF813000B4493F89430F6
:1094F4009BB213449BB2303BADF816309DF9133048
:10950400002B01DA0C2358E0019B9A689DF8133074
:10951400134493F89430002BD9D1BDF81630FA2BAC
:1095240004D9019B9B68FA221A7205E0019B9B688F
:10953400BDF81620D2B21A72BDF81430FA2B04D931
:10954400019B9B68FA229A7205E0019B9B68BDF817
:109554001420D2B29A72019B9B68002283F8942053
:1095640000232AE0019B9A689DF813309DF80B10A4
:1095740013440A4683F894209DF8133001338DF880
:1095840013309DF81330092B07D9019B9B680022E7
:1095940083F89420042310E000BF039B002B7FF486
:1095A4002DAFBDF810300133ADF81030BDF81030D8
:1095B400B3F57A7FFFF422AF0D23184607B05DF8A8
:1095C40004FB00BF3029030000B587B0039002916B
:1095D4000192029B002B04D12A494FF42870FFF713
:1095E40050FA019B002B04D1264940F2A120FFF739
:1095F40048FA0398FFF7DEFE0346002B18D1039BBD
:109604009B681B7AADF81630039B9B689B7AADF878
:109614001430FA210398FFF785FEFA210398FFF727
:10962400B1FE0398FFF7C6FE0346002B24D101E0E8
:10963400062322E0039B9B681A7A029B1A70039B01
:109644009B689A7A019B1A70029B1A78BDF81630AF
:10965400DBB2D31ADBB219460398FFF74BFE019B2A
:109664001A78BDF81430DBB2D31ADBB2194603986A
:10967400FFF770FE002300E00623184607B05DF8EC
:1096840004FB00BFB822030000B585B001900B466F
:109694008DF803309DF80330002B2ED0019B9B687E
:1096A400DB7B9DF803209A4234D01B238DF80830CD
:1096B4005B238DF8093031238DF80A303B238DF874
:1096C4000B3033238DF80C309DF803302F33DBB28D
:1096D4008DF80D306D238DF80E3000238DF80F308A
:1096E400019B9B689DF80320DA73019B1B6902AA06
:1096F4000A49184600F0A2FF0DE0019B9B689DF803
:109704000320DA73019B1B69054A0449184600F0DB
:1097140095FF00E000BF05B05DF804FB00230300E3
:109724004829030000B585B001900B468DF803303D
:109734009DF80330002B29D0019B9B681B7C9DF86E
:1097440003209A4221D01B238DF808305B238DF827
:10975400093034238DF80A309DF803302F33DBB2FF
:109764008DF80B306D238DF80C3000238DF80D30FF
:10977400019B9B689DF803201A74019B1B6902AA34
:109784000449184600F05AFF00E000BF05B05DF838
:1097940004FB00BF0023030000B583B001900091D7
:1097A400019B9B680F3302221946009808F064F964
:1097B40000BF03B05DF804FB00B583B001900091D5
:1097C400009B1B7819460198FFF75EFF009B5B78AE
:1097D40019460198FFF7A6FF00BF03B05DF804FB2C
:1097E4000CB400B585B001900B468DF80330069B90
:1097F400002B04D12B4940F67720FFF742F9019B57
:10980400002B04D1274940F67820FFF73AF9019B51
:109814009B68002B07D0019B5B68002B03D0019B46
:109824001B68002B04D11F4940F67920FFF729F962
:109834000023039307AB0393019B9B68D3F83C314C
:10984400C3F38003DBB2002B1ED0019B9B68DB7B40
:109854009DF803209A4217D002AB19460198FFF7EE
:109864009BFF9DF8033019460198FFF70DFF019BFC
:109874001B6903AA0699184601F0C0F802AB194601
:109884000198FFF799FF06E0019B1B6903AA06995B
:10989400184601F0B3F800BF05B05DF804EB02B060
:1098A400704700BFB822030000B589B0039002914D
:1098B40001928DF80330029B002B00F0B8809DF8D4
:1098C4000330002B05D0019BDBB219460398FFF748
:1098D40029FD0023069302E0069B01330693029AB6
:1098E400069B13441B78184608F0BCF80346002B6B
:1098F400F2D1002305930298FFF798FB0246069BDA
:10990400D31A0793039B9B685B7B1A46019BD21A6D
:10991400079B9A4238D30023059324E0069A059BBB
:109924001344029A13441B780A2B19D10398FFF7A6
:109934004BFB029A069BD1180023059A0398FFF764
:1099440085FB059A069B1344013306930398FFF79E
:10995400ABFC019BDBB219460398FFF7E3FC06E07E
:10996400059B01330593059A079B9A42D6D3039B23
:109974001869029A069B1344194600F05FFE00BF63
:109984000398FFF791FC53E0039B9B685B7B1A46AB
:10999400019BD31A0793069A059B1344029A134416
:1099A4001B78184608F05EF80346002B09D0059B87
:1099B4000793069A059B1344029A13441B780A2BB7
:1099C4000BD0059A019B1344039A9268527B9342ED
:1099D40005D2059B01330593DDE700BF00E000BF1E
:1099E4000398FFF7F1FA029A069BD1180023079A0D
:1099F4000398FFF72BFB069A079B1344069302E098
:109A0400069B01330693029A069B13441B7818465F
:109A140008F028F80346002BF2D10398FFF744FC22
:109A2400019BDBB219460398FFF77CFC61E700BF9A
:109A340009B05DF804FB000030B591B005900491C5
:109A44000392059B002B04D1B54940F6F820FFF79B
:109A540018F8059B9B68002B07D0059B5B68002BBF
:109A640003D0059B1B68002B04D1AD4940F6F920B7
:109A7400FFF707F80023ADF83E30AA48FFF7D6FAFF
:109A840003469CB2A848FFF7D1FA03469BB2E31AF7
:109A9400ADF83C30059B9B685B681A68A34B009348
:109AA4001346A34A08210598FFF79AFE059B9B6875
:109AB4005B681B681846FFF7B9FA03469CB29B48DB
:109AC400FFF7B4FA03469BB22344ADF83E30059B3E
:109AD4009B685B685968BDF83E2000230598FFF732
:109AE400E3FE944A08210598FFF77AFE039B002BB6
:109AF4004AD0049B002B47D000230E9340E00E9ADB
:109B040013465B0013449B001A46049B13445B6892
:109B14001846FFF78BFA04460E9A13465B0013446B
:109B24009B001A46049B13441B681846FFF77EFAF1
:109B34000346E218BDF83C309A421ED90E9A1346E9
:109B44005B0013449B001A46049B13445B6818464D
:109B5400FFF76CFA03469CB20E9A13465B0013445B
:109B64009B001A46049B13441B681846FFF75EFAD1
:109B740003469BB22344ADF83C300E9B01330E9355
:109B84000E9A039B9A42BAD36748FFF74FFA0246EC
:109B9400694B1B7813449AB2BDF83C301344ADF8BA
:109BA4003C30BDF83C205F4B00931346634A0821C8
:109BB4000598FFF715FE604B1B789AB2BDF83C3050
:109BC40013449BB20133ADF83E30BDF83E20002370
:109BD4005B490598FFF768FE049B002B00F00181A8
:109BE40000230D93F8E00D9A13465B0013449B0089
:109BF4001A46049B13445B68002B69D00D9A1346E4
:109C04005B0013449B001A46049B13441B68002BFF
:109C14005ED00D9A13465B0013449B001A46049BC6
:109C2400134459680D9A13465B0013449B001A466B
:109C3400049B13441B6801933B4B00930B46414A1E
:109C440008210598FFF7CCFD3B4B1B789AB2BDF871
:109C54003C301344ADF83E30BDF83E30DCB20D9AD2
:109C640013465B0013449B001A46049B13445B6831
:109C74001846FFF7DBF90346DDB20D9A13465B0085
:109C840013449B001A46049B13441B681846FFF7B1
:109C9400CDF90346DBB22B44DAB2274B1B781344CD
:109CA400DDB22148FFF7C2F90346DBB22B44DBB235
:109CB400E31ADBB219460598FFF734FB3A210598FD
:109CC400FFF72CFABDF83E300133ADF83E3062E0C8
:109CD4000D9A13465B0013449B001A46049B1344DD
:109CE4005B68002B30D0BDF83C100D9A13465B0026
:109CF40013449B001A46049B13445B6800930B4671
:109D04000E4A08210598FFF76BFD0B4B1B789AB29E
:109D1400BDF83C3013449BB20133ADF83E303AE019
:109D2400B82203004C290300582903005C290300CE
:109D3400C8230300D023030060290300DC230300AD
:109D4400E4230300F82303000D9A13465B00134435
:109D54009B001A46049B13441B68002B1BD0BDF8C0
:109D64003C100D9A13465B0013449B001A46049B57
:109D740013441B6800930B465C4A08210598FFF7BF
:109D84002FFD5B4B1B789AB2BDF83C3013449BB259
:109D94000133ADF83E300D9A13465B0013449B002B
:109DA4001A46049B13449B68002B0FD00D9A13464C
:109DB4005B0013449B001A46049B13449968BDF846
:109DC4003E2000230598FFF76FFD02E00598FFF79A
:109DD4006BFA0D9B01330D930D9A039B9A42FFF48A
:109DE40002AF059B9B685B689B68002B76D0059B44
:109DF4009B685B689B680B93002306930023ADF874
:109E04003E300023ADF83C3000230C930C9A531CD5
:109E14000C9306A907AB00930B4601210B98FFF79F
:109E2400BBF9069B002B12D0069B1B681846FFF754
:109E3400FDF80246BDF83C309A42E7D9069B1B6800
:109E44001846FFF7F3F80346ADF83C30DEE700BFF1
:109E54000C9B012B44D0274A08210598FFF7C0FC2E
:109E640000230C930C9A531C0C9306A907AB009384
:109E74000B4601210B98FFF78FF9069B002B31D07D
:109E84001B4B1B789AB2BDF83C301344ADF83E30FE
:109E9400BDF83E20069B1B6800931346134A082115
:109EA4000598FFF79DFC124B1B789AB2BDF83E3023
:109EB40013449BB20133ADF83E30069B5B68002B24
:109EC40008D0069B5968BDF83E2000230598FFF78B
:109ED400EBFCC7E70598FFF7E7F9C3E700BF02E02B
:109EE40000BF00E000BF11B030BD00BFDC230300A1
:109EF400602903000424030000B585B00390019297
:109F040000930B468DF80B300398FFF733F80346A4
:109F1400002B06D0009A01990398FFF78DFD0123C9
:109F24000FE09DF80B30002B0AD0039B9B685B6805
:109F34001B68064A02210398FFF752FC012300E044
:109F44000023184605B05DF804FB00BF4424030059
:109F540000B585B0039002910192039B002B04D1BC
:109F64002B4940F67C40FEF78CFD039B9B68002B3D
:109F740007D0039B5B68002B03D0039B1B68002B5B
:109F840004D1234940F67D40FEF77BFD029B022B62
:109F94000BD10398FEF7EEFF0346002B05D00022F9
:109FA40000210398FFF748FD2FE0039B002B04D109
:109FB400174940F68540FEF764FD039B1B69002B9F
:109FC40004D1134940F68540FEF75BFD039B1B69F2
:109FD400104A1149184600F031FB039B002B04D1B1
:109FE4000B4940F68640FEF74CFD039B1B69002B92
:109FF40004D1074940F68640FEF743FD039B1B69E5
:10A00400064A0549184600F019FB05B05DF804FB43
:10A01400B822030064290300002303006829030015
:10A0240000B585B0039002910192039B002B04D1EB
:10A03400174940F68B40FEF724FD039B9B68002BD9
:10A0440007D0039B5B68002B03D0039B1B68002B8A
:10A0540004D10F4940F68C40FEF713FD029B012BFF
:10A0640008D0029B022B0BD10398FEF783FF034613
:10A07400002B05D0002200210398FFF7DDFC04E04B
:10A08400044A02210398FFF7ABFB05B05DF804FB1B
:10A09400B8220300A423030000B585B00390029105
:10A0A4000192029B012B14BF01230023D9B2002388
:10A0B40000220398FFF720FF0346002B08D1039BDF
:10A0C4009A6892F83C316FF3820382F83C3100E0E5
:10A0D40000BF05B05DF804FB00B585B003900291A4
:10A0E4000192029B012B14BF01230023D9B2002348
:10A0F40000220398FFF700FF0346002B08D1039BBF
:10A104009A6892F83C3143F0040382F83C3100E051
:10A1140000BF05B05DF804FB00B587B0059004915D
:10A124000392059B002B04D11F4940F6AC40FEF777
:10A13400A8FC059B9B68002B07D0059B5B68002B44
:10A1440003D0059B1B68002B04D1174940F6AD4092
:10A15400FEF797FC049B012B05D1002200210598F2
:10A16400FFF76AFC1DE0049B022B14BF01230023AC
:10A17400D9B2002300220598FFF7BEFE0346002B48
:10A184000ED1039B1A68039B04331B680193074B8E
:10A1940000931346064A02210598FFF721FB00E0CD
:10A1A40000BF07B05DF804FBB82203006C24030071
:10A1B4006024030000B587B0059004910392049BCA
:10A1C400022B8CBF01230023D9B20023002205985F
:10A1D400FFF792FE0346002B20D1049B022B0ED1E5
:10A1E400039B1A68039B04331B6801930D4B009374
:10A1F40013460D4A02210598FFF7F2FA0FE005987D
:10A20400FEF708FF0346002B01D0084B00E0084B83
:10A21400084A08210598FFF7E3FA00E000BF07B0F9
:10A224005DF804FB6C240300602403008424030011
:10A23400882403008C24030000B585B003900291A8
:10A244000192029B012B14BF01230023D9B20023E6
:10A2540000220398FFF750FE0346002B03D1039816
:10A26400FEF7CBFE00E000BF05B05DF804FB00B5CF
:10A2740085B0039002910192029B012B14BF01232C
:10A284000023D9B2002300220398FFF735FE0346CA
:10A29400002B03D10398FEF7A3FE00E000BF05B036
:10A2A4005DF804FB00B58DB0059004910392059B05
:10A2B400002B04D12D4940F6F240FEF7E2FB059B4A
:10A2C4009B68002B07D0059B5B68002B03D0059B84
:10A2D4001B68002B04D1254940F6F340FEF7D1FB5F
:10A2E400049B012B14BF01230023D9B200230022B5
:10A2F4000598FFF701FE0346002B33D100230B938F
:10A30400059B9B68D3F834310A930A9B002B23D016
:10A314000B9B072B20D807A9002309220A9800F0D9
:10A32400E1FE059B9B6803F194019DF82430013301
:10A334001A4609230A9800F0D5FE089B0A930B9B42
:10A344005A1C0B92059A926894320092084A08218A
:10A354000598FFF745FAD8E7059B9B68002283F828
:10A36400942000E000BF0DB05DF804FBB8220300A8
:10A37400A024030000B587B0059004910392049BC8
:10A38400012B05D1002200210598FFF755FB1CE0A5
:10A39400049B022B0ED1039B1A68039B04331B6896
:10A3A40001930B4B009313460A4A02210598FFF7C9
:10A3B40017FA0AE0049B022B8CBF01230023D9B2B5
:10A3C400002300220598FFF797FD07B05DF804FB12
:10A3D4006C2403006024030000B58BB00790069141
:10A3E4000592069B012B14BF01230023D9B200233D
:10A3F40000220798FFF780FD0346002B2BD1079B13
:10A40400DB68DB68184600F0EBFF03468DF8273065
:10A414009DF82730642202FB03F2079BDB68DB68AC
:10A424009B68B2FBF3F38DF82630079B9B68D3F847
:10A434002C019DF826309DF827200799C968C96822
:10A4440089680291019200930346054A08210798FE
:10A45400FFF7C6F900E000BF0BB05DF804FB00BFD6
:10A46400AC24030000B585B0039002910192029BD5
:10A47400012B14BF01230023D9B200230022039827
:10A48400FFF73AFD0346002B0BD1039B9B68002288
:10A49400C3F82C21039BDB68DB68184600F0B4FF8B
:10A4A40000E000BF05B05DF804FB000000B585B016
:10A4B400039002910192029B012B14BF01230023FC
:10A4C400D9B2002300220398FFF716FD0346002BA0
:10A4D40020D1039B002B04D1104940F65150FEF7C4
:10A4E400D0FA039B1B69002B04D10C4940F6515050
:10A4F400FEF7C7FA039B1B69094A0A49184600F08C
:10A504009DF8039B9B6850225A73039B9B681822F7
:10A514001A7300E000BF05B05DF804FBB822030025
:10A52400702903000023030000B587B0059004914F
:10A534000392059B002B04D12B4940F65850FEF79B
:10A54400A0FA059B9B68002B07D0059B5B68002B3A
:10A5540003D0059B1B68002B04D1234940F65950B6
:10A56400FEF78FFA049B012B1BD1059B9B6803F11B
:10A574000D01059B9B680C331A460598FFF724F8D8
:10A584000346002B2AD0059B9B6850225A73059BD7
:10A594009B6818221A73154A04210598FFF720F9BD
:10A5A4001CE0049B022B8CBF01230023D9B200239F
:10A5B40000220598FFF7A0FC0346002B10D1039B53
:10A5C4001A68039B04331B680193094B00931346D9
:10A5D400084A02210598FFF703F902E000BF00E0F2
:10A5E40000BF07B05DF804FBB8220300E8240300B1
:10A5F4006C2403006024030000B583B00190019B28
:10A60400002B03D10C493120FEF73BFA019B9B68D8
:10A61400002B0CD0019B5B69019A1069019A1168A7
:10A62400019A92689847019B00229A6000E000BF5B
:10A6340003B05DF804FB00BF782903000EB400B535
:10A6440084B00190019B002B03D118494220FEF7EE
:10A6540018FA019B5B69002B03D114494320FEF7D0
:10A6640010FA019B1B68002B03D110494420FEF70C
:10A6740008FA019B5B68002B03D10C494520FEF7C7
:10A6840000FA059B002B0AD00023039306AB039327
:10A6940003AB1A460599019800F0B0F900E000BF39
:10A6A40004B05DF804EB03B0704700BF78290300E1
:10A6B40000B583B001900B468DF80330019B1A68F6
:10A6C400019B9B68581C0199886013449DF80320E2
:10A6D4001A70019B9A68019B5B689A4202D30198A5
:10A6E400FFF78AFF00BF03B05DF804FB00B587B035
:10A6F400039002910192009300230593009B03F0C1
:10A704000103002B24D00BE0029B01330293059B31
:10A71400013305939DF8133019460398FFF7C8FFDA
:10A72400029B1B788DF813309DF81330002BEBD16E
:10A7340006E0019B013B019320210398FFF7B8FF3A
:10A74400019A059B9A422ED9019B002BF1D12AE054
:10A75400029B002B0BD0029807F036FA059006E016
:10A76400019B013B019320210398FFF7A1FF019A6C
:10A77400059B9A420FD9019B002BF1D10BE0029B60
:10A7840001330293059B013305939DF81330194659
:10A794000398FFF78DFF029B1B788DF813309DF80B
:10A7A4001330002BEBD100BF07B05DF804FB0000B1
:10A7B40000B589B00390029101920093029B079324
:10A7C4000123069307E0079A019BB2FBF3F3079377
:10A7D400069B01330693079A019B9A42F3D2009A8F
:10A7E400069B9A4201D9009B06930B9B03F001033D
:10A7F400002B22D10A9B002B1FD00B9B03F00203DA
:10A80400002B06D0009B002B03D130238DF817308A
:10A8140002E020238DF8173008E00A9B013B0A93DD
:10A824009DF8173019460398FFF742FF0A9B002B47
:10A8340003D0069A0A9B9A42EFD301230793009B05
:10A84400012B03D9009B013B009309E0029A079B6B
:10A85400B2FBF3F30493049A019B9A4200D205E0FD
:10A86400079B019A02FB03F30793E8E7029A079B0D
:10A87400B2FBF3F30493049B079A02FB03F3029ADB
:10A88400D31A0293154A049B13441B781946039860
:10A89400FFF70EFF079A019BB2FBF3F30793079BA5
:10A8A400002BE3D10B9B03F00103002B11D00A9B77
:10A8B400002B0ED006E00A9B013B0A93202103984B
:10A8C400FFF7F6FE0A9B002B03D0069A0A9B9A42D6
:10A8D400F1D300BF09B05DF804FB00BF002A0300F8
:10A8E40000B589B00590049103920293049B002B58
:10A8F400B8BF5B4206930123079307E0039B069AC4
:10A9040092FBF3F30693079B01330793039B069A89
:10A914009A42F3DA029A079B9A4201D9029B07935F
:10A924000A9B002B0AD0049B002B04DB0B9B03F037
:10A934000403002B02D00A9B013B0A930B9B03F0F8
:10A944000203002B02D0029B002B16D00B9B03F0BA
:10A954000103002B11D10A9B002B0ED006E00A9BA9
:10A96400013B0A9320210598FFF7A2FE0A9B002BC6
:10A9740003D0079A0A9B9A42F1D3049B002B07DA6F
:10A98400049B5B4204932D210598FFF791FE08E098
:10A994000B9B03F00403002B03D02B210598FFF736
:10A9A40087FE0B9B03F00203002B19D00B9B03F0D3
:10A9B4000103002B14D1029B002B11D10A9B002B05
:10A9C4000ED006E00A9B013B0A9330210598FFF75D
:10A9D4006FFE0A9B002B03D0079A0A9B9A42F1D37D
:10A9E40004990B9B01930A9B0093029B039A05987D
:10A9F400FFF7DEFE00BF09B05DF804FB00B58FB0C1
:10AA0400059004910392059B002B04D1C8494FF48F
:10AA14009F70FEF736F8059B5B69002B04D1C4498F
:10AA24004FF4A070FEF72DF8059B1B68002B04D192
:10AA3400BF4940F24110FEF724F8059B5B68002BE8
:10AA440004D1BB494FF4A170FEF71BF8049B002B03
:10AA540000F0ED81049B1B788DF83730049B0133A3
:10AA640004939DF83730002B00F0D8819DF83730DF
:10AA7400252B40F0C78100230A9301230C93049BE8
:10AA84001B788DF837309DF837302D2B04D0302BC0
:10AA94000AD02B2B10D017E00A9B43F001030A9332
:10AAA400049B0133049312E00A9B43F002030A93CC
:10AAB400049B013304930AE00A9B43F004030A93C2
:10AAC400049B0133049302E000230C9300BF0C9B0E
:10AAD400002BD4D1002309939DF837302A2B0CD1B5
:10AAE400039B1B68191D039A11601B68099A134480
:10AAF4000993049B013304931AE0049B1B788DF89B
:10AB040037309DF837302F2B12D99DF83730392B39
:10AB14000ED8049B01330493099A13469B001344F3
:10AB24005B001A469DF837301344303B0993D3E752
:10AB340000230B93049B1B788DF837309DF8373036
:10AB44002E2B1DD1049B01330493049B1B788DF899
:10AB540037309DF837302F2B12D99DF83730392BE9
:10AB64000ED8049B013304930B9A13469B001344A1
:10AB74005B001A469DF837301344303B0B93E4E7EF
:10AB8400049B1B788DF837309DF837306C2B03D03D
:10AB94009DF83730682B07D1049B01330493049B41
:10ABA4001B788DF83730EFE79DF83730253B532B72
:10ABB40000F2238101A252F823F000BFF5AD020098
:10ABC400FFAD0200FFAD0200FFAD0200FFAD0200C9
:10ABD400FFAD0200FFAD0200FFAD0200FFAD0200B9
:10ABE400FFAD0200FFAD0200FFAD0200FFAD0200A9
:10ABF400FFAD0200FFAD0200FFAD0200FFAD020099
:10AC0400FFAD0200FFAD0200FFAD0200FFAD020088
:10AC1400FFAD0200FFAD0200FFAD0200FFAD020078
:10AC2400FFAD0200FFAD0200FFAD0200FFAD020068
:10AC3400FFAD0200FFAD0200FFAD0200FFAD020058
:10AC4400FFAD0200FFAD0200FFAD0200FFAD020048
:10AC5400FFAD0200FFAD0200FFAD0200FFAD020038
:10AC6400FFAD0200FFAD0200FFAD0200FFAD020028
:10AC7400FFAD0200FFAD0200FFAD0200FFAD020018
:10AC8400FFAD0200FFAD020081AD0200FFAD020086
:10AC9400FFAD0200FFAD0200FFAD0200FFAD0200F8
:10ACA400FFAD0200FFAD0200FFAD0200FFAD0200E8
:10ACB400FFAD020011AD020039AD0200FFAD02008C
:10ACC400FFAD0200FFAD0200FFAD020039AD02008E
:10ACD400FFAD0200FFAD0200FFAD0200FFAD0200B8
:10ACE400FFAD0200FFAD0200C1AD0200FFAD0200E6
:10ACF400FFAD0200A5AD0200FFAD02005DAD020094
:10AD0400FFAD0200FFAD020081AD0200039B1B6892
:10AD1400191D039A11601B680C930C9B8DF823304A
:10AD24009DF8233019460598FFF7C2FC66E000BF82
:10AD3400B8290300039B1B68191D039A11601B6843
:10AD44000C930A9B0193099B00930B9B0A220C9979
:10AD54000598FFF7C5FD51E0039B1B68191D039A75
:10AD640011601B680C930C990A9B0193099B009337
:10AD74000B9B0A220598FFF71BFD3FE0039B1B6812
:10AD8400191D039A11601B680C930C990A9B01937B
:10AD9400099B00930B9B10220598FFF709FD2DE0FA
:10ADA400039B1B68191D039A11601B6807930A9B78
:10ADB400099A07990598FFF799FC1FE0039B1B6804
:10ADC400191D039A11601B680C9330210598FFF735
:10ADD4006FFC78210598FFF76BFC0C990023019315
:10ADE40008230093082310220598FFF7E1FC05E0EF
:10ADF40025210598FFF75CFC00E000BF049B0133AC
:10AE0400049305E09DF8373019460598FFF750FC88
:10AE1400049B1B78002B7FF41DAE00E000BF059B54
:10AE24001B7B002B04D00598FFF7E6FB00E000BF76
:10AE34000FB05DF804FB00BF00B583B0019001982A
:10AE4400FDF7BEFF0346184603B05DF804FB00B5EA
:10AE54008BB001900091019B1B8B043B0793009ADC
:10AE6400079B1344DA1C079BB2FBF3F38DF81B30EA
:10AE74000198FEF701F80590059B002B01D10023F2
:10AE840038E0059B00221A71059B01225A71079B29
:10AE94009AB2059BDA80059B09939DF81B30013B10
:10AEA4000493099B019A1A60002308931DE00198FA
:10AEB400FDF7E2FF0390039B002B0ED0059B5B790B
:10AEC4000133DAB2059B5A71099B039A1A60039BFA
:10AED400019A1A60039B099304E0059800F00EF8A8
:10AEE400002307E0089B01330893089A049B9A42C5
:10AEF400DDD3059B18460BB05DF804FB00B58BB0A1
:10AF04000190019B0793079B5B798DF81B30019B94
:10AF140008939DF81B30013B05930023099305E03A
:10AF2400089B1B680893099B01330993099A059BA5
:10AF34009A42F5D3089B1B680493019B0893002352
:10AF440009930BE0089B1B68039308990498FDF789
:10AF5400DDFF039B0893099B013309939DF81B2094
:10AF6400099B9A42EED800BF0BB05DF804FB00B514
:10AF740085B00190019B0393039B04330121184680
:10AF8400FDF7DDFD00BF05B05DF804FB00B587B03B
:10AF94000190019B0593059B043301211846FDF79D
:10AFA400E6FD0346039303AB0493049B1B78002B39
:10AFB40002D10198FFF7A2FF00BF07B05DF804FBC0
:10AFC40000B58DB00390029101920093039B069308
:10AFD400069BDB880593039B0B93009B1A1D059B23
:10AFE400B2FBF3F30A93009B0433059AB3FBF2F22A
:10AFF400059901FB02F29B1A0993009A019B1A44DA
:10B00400059B1344DA1C059BB2FBF3F38DF8133054
:10B01400069B5B799DF813209A420AD92749BA20E6
:10B02400FDF72FFD05E00B9B1B680B930A9B013B6F
:10B034000A930A9B002BF6D100230893059A099BD7
:10B04400D31A0793079A019B934228BF1346079389
:10B054002DE09DF83830002B0BD0029A089BD018B5
:10B064000B9A099B13440433079A194606F004FD0E
:10B074000AE00B9A099B1344181D029A089B134477
:10B08400079A194606F0F8FC002309930B9B1B68EA
:10B094000B93019A079BD31A0193089A079B1344B5
:10B0A4000893059A019B934228BF13460793019B7B
:10B0B400002BCED100BF0DB05DF804FB102A0300B5
:10B0C40000B587B005900491039202930023009386
:10B0D400029B039A04990598FFF772FF00BF07B01B
:10B0E4005DF804FB00B587B00590049103920293C8
:10B0F40001230093029B039A04990598FFF760FFCC
:10B1040000BF07B05DF804FB82B003468DF807303A
:10B1140008499DF907305B099DF8072002F01F02DA
:10B12400012000FA02F2603341F8232000BF02B08C
:10B13400704700BF00E100E000B583B00190019BBF
:10B14400002B03D106497220FDF79BFC019B0022D2
:10B154001A60BFF35F8F00BF03B05DF804FB00BF4C
:10B16400C02A030041DF704700BF184600B585B010
:10B1740000238DF803300DF103031846FDF734FC6A
:10B18400F1EE103A0193019B0393039B23F09F0379
:10B194000293029BE1EE103ABFF35F8F2620FFF784
:10B1A400B3FF9DF803301846FDF734FC039B03F00E
:10B1B4000703002B03D004497620FDF762FC00BF8F
:10B1C40005B05DF804FB00BF082B030008B5064B6F
:10B1D40000221A700548FFF7AFFF0549054800F043
:10B1E40029F90023184608BD103A00200C3A002023
:10B1F400542B0300143A002000B583B0FFF7B6FFC8
:10B2040006F0F6F80346002B0ED0FFF7ABFF0190D3
:10B21400019B002B0BD0019B022B08D0064940F266
:10B224005910FDF72EFC02E020BF40BF20BF00BF35
:10B2340003B05DF804FB00BF082B030082B001904B
:10B24400019B9B68D3F83C31C3F34003DBB2002B72
:10B2540014BF01230023DBB2184602B0704700007C
:10B2640000B595B00B900A9109920B98FFF7E6FF91
:10B274000346002B05D0002200210B98FEF7DCFBCF
:10B284005CE00A9B012B05D92E4A02210B98FEF79C
:10B29400A7FA53E02C4A2D4BD31A9B082C4AA2FB45
:10B2A400032312930023139344E0139A1346DB0001
:10B2B4009B1A9B001A46254B13441193119BDB6880
:10B2C4001093119B9B680F93119800F089F80E90CE
:10B2D400119800F061F80D90119B5B690C930D9B24
:10B2E400642202FB03F20F9BB2FBF3F30E9A642178
:10B2F40001FB02F10F9AB1FBF2F21199097C0029CA
:10B3040001D1144900E0144907910F9906910E994F
:10B31400059104920F9A03920D9A02920193109B45
:10B3240000930C9B0D4A08210B98FEF759FA139BC6
:10B3340001331393139A129B9A42B6D315B05DF856
:10B3440004FB00BF602B0300F01C0300F01C03008F
:10B3540025499224742B0300802B03008C2B0300BB
:10B3640084B00190019B1B681B680393019B1B68BD
:10B374005B680293029A039B9A4203D3029A039B4B
:10B38400D31A06E0019B9A68039BD21A029B1344CA
:10B394000133184604B0704700B585B00190019B95
:10B3A400002B04D10D4940F2FD10FDF76AFB002388
:10B3B4008DF80B300DF10B031846FDF715FB0198C2
:10B3C400FFF7CEFF03909DF80B301846FDF722FBE4
:10B3D400039B184605B05DF804FB00BF5C2C03001A
:10B3E40000B583B00190019B002B04D105494FF4B3
:10B3F4000670FDF746FB019B1B689B68184603B06B
:10B404005DF804FB5C2C030000B583B00190019B44
:10B41400002B04D1064940F21E20FDF732FB019BAC
:10B424001B6800229A6000BF03B05DF804FB00BFF4
:10B434005C2C030000B583B001900091019B002BAC
:10B4440003D110495020FDF71CFB009B002B03D1B6
:10B454000C495120FDF715FB019B009A1A60019BD2
:10B464001B681A68019B5A60019B5A68019B1B6800
:10B474005B689A4202D1019B00225A6000BF03B06C
:10B484005DF804FBDC2C030000B583B00190019B44
:10B49400002B03D114496320FDF7F3FA019B1B68C9
:10B4A400002B03D110496420FDF7EBFA019B5B6884
:10B4B400002B14D0019B5B681A46019B1B689B6898
:10B4C40013441A46019B5A60019B5A68019B1B68EE
:10B4D4005B689A4204D1019B00225A6000E000BFDD
:10B4E40003B05DF804FB00BFDC2C030000B585B09D
:10B4F4000190019800F00EF80390039B002B01D0FB
:10B50400039B00E0024B184605B05DF804FB00BF46
:10B51400402D030086B00190164B0593164B0493FF
:10B524001FE0049A059BD31ADB10DA0F13445B1057
:10B53400DB00059A13440393039B1B680293029A4E
:10B54400019B9A4202D9039B04930AE0029A019B4D
:10B554009A4203D2039B0833059302E0039B5B6882
:10B5640004E0059A049B9A42DBD30023184606B0F4
:10B57400704700BF4031030068320300BFF34F8FB0
:10B584000549054BDB6803F4E062044B1343CB60CD
:10B59400BFF34F8F00BFFDE700ED00E00400FA05A4
:10B5A400024B034A1A6000BF704700BFD03200202C
:10B5B4000090D00308B500F025F90346002B0ED007
:10B5C4004FF080430022C3F80C214FF08043002247
:10B5D400C3F810214FF080430022C3F8382500F04F
:10B5E4002FF90346002B76D07D4A4FF08053D3F8D1
:10B5F4000434C2F820357A4A4FF08053D3F8083423
:10B60400C2F82435764A4FF08053D3F80C34C2F88C
:10B614002835734A4FF08053D3F81034C2F82C35D0
:10B624006F4A4FF08053D3F81434C2F830356C4A63
:10B634004FF08053D3F81834C2F83435684A4FF0C9
:10B644008053D3F81C34C2F84035654A4FF0805318
:10B65400D3F82034C2F84435614A4FF08053D3F80C
:10B664002434C2F848355E4A4FF08053D3F8283466
:10B67400C2F84C355A4A4FF08053D3F82C34C2F8F0
:10B684005035574A4FF08053D3F83034C2F854350C
:10B69400534A4FF08053D3F83434C2F86035504ADB
:10B6A4004FF08053D3F83834C2F864354C4A4FF025
:10B6B4008053D3F83C34C2F86835494A4FF080537C
:10B6C400D3F84034C2F86C35454A4FF08053D3F870
:10B6D4004434C2F8703500F0D1F80346002B02D090
:10B6E400404B414A1A6000F0DBF80346002B03D0BC
:10B6F4003E4BFB22C3F8182500F0E4F80346002B68
:10B704000AD03B493A4B1B6823F00F02394B1B68A4
:10B7140003F00F0313430B6000F0E6F80346002B1D
:10B7240003D0354B4FF400721A6000F0EFF8034673
:10B73400002B0DD04FF08043D3F8003403F0010305
:10B74400002B05D04FF080436FF00102C3F80024B2
:10B754002A4A2A4BD3F8883043F47003C2F888305D
:10B76400BFF34F8FBFF36F8F4FF01023D3F8003226
:10B77400002B05DB4FF01023D3F80432002B2BDA17
:10B784001F4B0122C3F8042500BF1D4BD3F800341E
:10B79400002BFAD04FF010231222C3F8002200BF6E
:10B7A400174BD3F80034002BFAD04FF01023122299
:10B7B400C3F8042200BF124BD3F80034002BFAD094
:10B7C4000F4B0022C3F8042500BF0D4BD3F80034FF
:10B7D400002BFAD0FFF7D2FEFFF7E2FE00BF08BD50
:10B7E40000C000408C5600404881030000F0004037
:10B7F400E40E0040580200104096024000ED00E0C4
:10B8040000E001400C4B1B68082B11D10B4B1B684B
:10B81400002B01D101230CE0084B1B68012B01D143
:10B82400012306E0054B1B68022B01D1012300E034
:10B8340001231846704700BF300100103401001086
:10B844000C4B1B68082B11D10B4B1B68002B01D12F
:10B8540001230CE0084B1B68012B01D1012306E0F6
:10B86400054B1B68022B01D1012300E0012318467C
:10B87400704700BF3001001034010010064B1B68F4
:10B88400082B05D1054B1B68002B01D1012300E0D7
:10B8940000231846704700BF300100103401001027
:10B8A400064B1B68082B05D1054B1B68002B01D1E7
:10B8B400012300E000231846704700BF3001001048
:10B8C40034010010064B1B68082B05D1054B1B687F
:10B8D400002B01D1012300E000231846704700BF6C
:10B8E4003001001034010010064B1B68082B05D1F1
:10B8F400054B1B68002B01D1012300E000231846EF
:10B90400704700BF30010010340100100C4B1B685D
:10B91400082B11D10B4B1B68002B01D101230CE028
:10B92400084B1B68012B01D1012306E0054B1B6862
:10B93400022B01D1012300E001231846704700BF08
:10B94400300100103401001000B583B00190019B58
:10B954001B682F2B04D90B4940F2C710FDF791F84F
:10B96400019B1B681F2B02D84FF0A04306E0019BEC
:10B974001B6803F01F02019B1A60034B184603B0B7
:10B984005DF804FB683203000003005000B585B085
:10B994000190084611461A4603468DF803300B46BB
:10B9A4008DF8023013468DF8013001AB1846FFF7CD
:10B9B400CBFF0390019A9DF803109DF802305B00C1
:10B9C40019439DF801309B0019439DF818301B0260
:10B9D40019439DF81C301B041943039B02F5E072C4
:10B9E40043F8221000BF05B05DF804FB00B585B034
:10B9F40003900023019300230093002301220121DB
:10BA04000398FFF7C3FF00BF05B05DF804FB00B562
:10BA140085B003900B468DF80B309DF80B20002366
:10BA24000193002300931346002200210398FFF79B
:10BA3400ADFF00BF05B05DF804FB00B585B0019013
:10BA440001AB1846FFF780FF0390019B012202FA25
:10BA540003F31946039800F069F800BF05B05DF8D8
:10BA640004FB00B585B0019001AB1846FFF76CFFED
:10BA74000390019B012202FA03F31946039800F094
:10BA84005FF800BF05B05DF804FB00B585B0019018
:10BA940001AB1846FFF758FF0390039BD3F8043516
:10BAA4000293029BDA43019B012101FA03F31A403A
:10BAB400039BC3F80825019B01229A40029B1A406C
:10BAC400039BC3F80C2500BF05B05DF804FB00B56B
