:020000022000DC
:106000000000042061620200B9620200BB6202006B
:10601000BD620200BF620200C16202000000000017
:10602000000000000000000000000000C362020049
:10603000C562020000000000C7620200C9620200DF
:10604000ADAB0200CF62020035B90200D36202009C
:10605000D5620200D76202004DB60200DB62020088
:10606000DD620200DF620200E1620200E362020020
:10607000E5620200E7620200E9620200EB620200F0
:10608000ED6202008D880200F1620200F3620200FC
:10609000CD880200F762020029F20200FB620200D2
:1060A000FD620200FF62020001630200036302005E
:1060B0000563020007630200CB620200CB620200AC
:1060C000096302000B6302000D6302000F6302000C
:1060D000D1BB0200136302001563020017630200C4
:1060E000196302001B6302001D630200CB62020001
:1060F000CB62020021630200CB6202001F63020038
:10610000364937480A1A02D0072291438D4635494D
:1061100035480A1A06D00722914381F309880222E2
:1061200082F3148831483249324A00F045F8324847
:106130003249334A00F040F832483349334A00F0DC
:106140003BF833483349344A00F036F83348344991
:10615000344A00F031F834483449354A00F02CF81C
:1061600034483549354A00F027F83548354900228A
:1061700000F02DF834483549002200F028F8344862
:106180003449091A082903DB002202600430016047
:10619000314A90471F482049884205D002680430A0
:1061A00003B4904703BCF7E700208646EC46002086
:1061B00000212A4A9047FEE7884207D0521A05D0AC
:1061C000037801300B700131013AF9D170478842F0
:1061D00002D002700130FAE770470000000004208E
:1061E00000E0032000000420000004200418030045
:1061F00054320020E83200202463020024630200AD
:1062000018FA02000418030054320020543200200F
:10621000F4FA0200F4FA0200F4FA0200F4FA0200BE
:10622000F4FA0200F4FA0200F4FA0200F4FA0200AE
:106230000418030098180300E8320020E832002018
:10624000E8320020943F0020943F0020943F00203B
:10625000943F0020945F0020856202004DEA020016
:106260000F484FF00701884385460E4880470E4887
:10627000016841F470010160BFF34F8FBFF36F8F6E
:10628000FFF73EBF09480A490A4A884207D0521A16
:1062900005D0037801300B700131013AF9D1704714
:1062A00000000420059D020088ED00E0C0FA020015
:1062B0002032002054320020FEE7FEE7FEE7FEE732
:1062C000FEE7FEE7FEE7FEE7FEE7FEE7FEE7FEE7A6
:1062D000FEE7FEE7FEE7FEE7FEE7FEE7FEE7FEE796
:1062E000FEE7FEE7FEE7FEE7FEE7FEE7FEE7FEE786
:1062F000FEE7FEE7FEE7FEE7FEE7FEE7FEE7FEE776
:10630000FEE7FEE7FEE7FEE7FEE7FEE7FEE7FEE765
:10631000FEE7FEE7FEE7FEE7FEE7FEE7FEE7FEE755
:04632000FEE700BFD5
:1063240000B585B00190019B002B0AD0074B43F0C8
:1063340001030393019B9B010293039B02989847DB
:1063440000E000BF05B05DF804FB00BF00FB0200E5
:1063540000B583B00190019B002B0AD04FF47A70F2
:10636400FFF7DEFF019B013B0193019B002BF5D15D
:1063740000E000BF03B05DF804FB08B508F0F0FCD2
:1063840000BF08BD00B589B0039002910192019B42
:10639400002B33D00023079303230693029A079B11
:1063A4001344019A1946002008F08CFC0590079AC2
:1063B400059B13440793019A059BD31A0193059BEC
:1063C400002B13D10F4B1B7883F00103DBB2002B9E
:1063D40013D10120FFF7BCFF069B013B0693069BEC
:1063E400002B03D1074B00221A7007E0054B012252
:1063F4001A70019B002BD1D100E000BF00BF09B08F
:106404005DF804FBE832002000B585B003900291EA
:10641400054B00934023054A0299039800F012F8B3
:1064240000BF05B05DF804FB89630200EC32002074
:1064340082B0019000BF02B0704782B0019000BFEB
:1064440002B0704700B5A1B0059004910392029385
:10645400049803F02EFA039B1593029B16930023D2
:10646400179300238DF8603000231993229B1A930D
:1064740000231F930FA91F9B0C22049803F0D4FA46
:106484000C231F93119B1293BDF84030ADF84C3090
:10649400BDF84230ADF84E3000238DF851309DF8F0
:1064A4003C3003F00303DBB2012B26D10F9BC3F373
:1064B40095231D939DF83C30C3F3C203DBB28DF8E2
:1064C4005030BDF83C30C3F38313DBB21C931C9BE8
:1064D4009A0009A91F9B049803F0A6FA1C9B9B0031
:1064E4001F9A13441F9312AA09A915AB00931346CC
:1064F4001C9A1D9801F0C4F82FE09DF83C3003F07D
:106504000303DBB2022B28D1BDF83E30C3F3891359
:106514009BB21E939DF83C30C3F3C203DBB28DF8EB
:1065240050301E9B082B28BF08231B9307A91F9BD1
:106534001B9A049803F078FA1F9A1B9B13441F9329
:106544001E9A1B9BD31A1E9315AB12AA07A81B995C
:1065540001F038F91E9B002BE3D1049803F0B8F93D
:1065640000BF21B05DF804FB00B583B00190019B2E
:106574001B781A460C4B9B5C002B05D0019B043303
:10658400184606F067FD0BE0019B1B781A46064B84
:106594009B5C002B04D1019B0C33184605F0FAFEDA
:1065A40000BF03B05DF804FB283A002000B587B0B3
:1065B4000390029113468DF8073000230593039B43
:1065C4001B781A46114B9B5C002B09D0039B0433A8
:1065D4009DF807200299184606F06AFD05900FE021
:1065E400039B1B781A46094B9B5C002B08D1039B29
:1065F4000C339DF807200299184605F041FF0590D9
:10660400059B184607B05DF804FB00BF283A00203C
:1066140082B001900091034B01221A7000BF02B0B6
:10662400704700BF6C33002030B58DB003468DF841
:1066340007301A4B02AC1D460FCD0FC495E80F006E
:1066440084E80F00062302934FF0FF3303934FF0C7
:10665400FF3304934FF0FF3305934FF0EB7308932C
:106664009DF80730002B01D00D4A00E0002202AB58
:1066740019460C4804F0B6F80B900B9B0A930A9B3E
:10668400002B04D0084A43210A9801F053FB074A1F
:106694009DF80730137000BF0DB030BD68FB0200D9
:1066A400156602005432002008FB02006D330020FE
:1066B40000B583B001238DF807309DF807301846E4
:1066C400FFF7B2FF00BF03B05DF804FB00B589B06B
:1066D400039002910192019B8DF81F30124B00220E
:1066E4001A709DF81F301A4602991048FFF75EFF92
:1066F4000690069B0593059B002B04D00C4A53215E
:10670400059801F017FB00BF0A4B1B78002B07D03C
:10671400054B1B78DBB283F00103DBB2002BF3D112
:1067240000BF09B05DF804FB6C3300205432002034
:1067340008FB02006D33002000B585B00390029180
:10674400054B00934023054A02990398FFF77AFE0C
:1067540000BF05B05DF804FBD16602002C330020B5
:1067640082B0019000BF02B07047000000B583B052
:1067740001900548FFF7F8FE0020FFF755FF00BF22
:1067840003B05DF804FB00BF5432002082B00190D6
:10679400019B01225A7200BF02B0704700B583B05A
:1067A4004FF0FF330193FFF7E8FD0421114800F097
:1067B4001FFE0190019B002B03DA0F49412002F0D8
:1067C40006FA0C48FFF7E2FFFFF772FF04210B48BB
:1067D40000F00EFE0190019B002B03DA06494820CD
:1067E40002F0F5F90548FFF7D1FF00BF03B05DF8EB
:1067F40004FB00BF6832002094FB020074320020C6
:1068040000B583B001900091019B1B681B6800993F
:106814000198984700BF03B05DF804FB00B583B04E
:106824000190019B1B685B680198984700BF03B007
:106834005DF804FB00B583B00190019B1B689B6865
:106844000198984700BF03B05DF804FB82B0019043
:106854000B468DF80330019B9DF803201A7200BF8C
:1068640002B0704782B00190019B1B7A184602B0B7
:10687400704782B00190019B01225A7200BF02B09E
:10688400704782B00190019B5B7A184602B0704752
:1068940000B587B001900091019B002B01D1072323
:1068A4003DE0214BFF229A601F4B00221A601E4BD1
:1068B40000225A601C4B0022C3F818241A4B0022F1
:1068C400C3F81424184B002283F82024009800F005
:1068D400EDFF154A019BC2F80C34144802F04EFF38
:1068E4000490049B002B01D0049B18E0104A114B28
:1068F400D31ADB080393002305930BE0059B9B004D
:106904000D4A13440293059B9AB2029B1A80059B7D
:1069140001330593059A039B9A42EFD3002318464B
:1069240007B05DF804FB00BF4034002090FA020079
:1069340090FA020028FA020020320020024A034B97
:10694400D31ADB081846704790FA020028FA0200AE
:1069540000B587B001900B468DF803309DF80330E5
:10696400002B1FD0FFF7EAFF04900023059313E0E8
:10697400059B9B000E4A13440393039B5B881A46B2
:10698400019B1B689A4204D1019B059A1A6000235B
:1069940009E0059B01330593059A049B9A42E7D3CA
:1069A400052300E00023184607B05DF804FB00BF90
:1069B4002032002000B585B001900B468DF80330DD
:1069C4009DF8032001AB11461846FFF7C1FF0346AB
:1069D400002B07D1019BDB00054A13440393039B5F
:1069E4001B6800E00023184605B05DF804FB00BFF7
:1069F40028FA020084B001900B468DF80330019B05
:106A0400DB00174A134402939DF80330013B032B28
:106A14001CD801A252F823F02D6A0200356A020044
:106A24003D6A0200476A020002238DF80F3011E02C
:106A340004238DF80F300DE0029B1B798DF80F3085
:106A440008E0029B5B798DF80F3003E000238DF89A
:106A54000F3000BF9DF80F30184604B0704700BFD8
:106A640028FA020000B585B00190009100238DF84A
:106A74000F30019B1B7803F00303DBB2002B06D01D
:106A8400019B1B7803F00403DBB2002B44D0019B71
:106A94001B7803F00403DBB2002B28D0019B1B7886
:106AA400C3F30103DBB2012B02D0022B0CD017E09D
:106AB400009B1B68019A1288C2F38312D2B213445A
:106AC400DA1C009B1A6024E0009B1B68019A528820
:106AD400C2F3891292B21344DA1C009B1A6018E0C4
:106AE40010494FF4A47002F072F800BF11E0009B4B
:106AF4001A68019B5B88C3F389139BB21946019BF7
:106B04001B88C3F389139BB20B4413445A1C009B88
:106B14001A6001238DF80F309DF80F30184605B028
:106B24005DF804FB10FC020000B58BB00023ADF847
:106B340026303E4802F0D9F83D4802F0D6F83D4BE5
:106B44005B6804933B4B9B680693049A069B134033
:106B540002339B00374A13440433089304AB1946A9
:106B64000898FFF77FFF0346002B09D0049A069B81
:106B7400134002339B002F4A134404330893EDE778
:106B840000BF0023079311E0079B9B0001AA1A444E
:106B9400049B591C049106990B40264902339B001F
:106BA4000B445B681360079B01330793079B022B1D
:106BB400EAD99DF80430C3F30103DBB2012B10D0F2
:106BC400022B1CD1BDF80A30ADF82630BDF80630D2
:106BD400C3F389139BB203339A08049B13440493AD
:106BE40013E0BDF80A30ADF82630BDF80430C3F325
:106BF4008313DBB21A46049B1344049305E00E4945
:106C04004FF4C27001F0E3FF00BF094802F079F8C5
:106C14000590059B002B02D0049B064A5360BDF8E7
:106C2400263018460BB05DF804FB00BF583800202E
:106C3400543800204034002010FC020000B585B018
:106C44000021074801F0DAFF0390039B0293029BA3
:106C540083F310030193019B184605B05DF804FB10
:106C64005C38002010B588B0039002910192009323
:106C7400039B1B0C0793FFF7E1FF0690FFF75EFEF3
:106C84000246079B9A4204D8294940F2A91001F010
:106C94009EFF009B5A1C0A9B1340069A1104079AF4
:106CA4000A43244902339B000B445A60009B9A1CFC
:106CB4000A9B02EA03041F4BD3F80C34984701469D
:106CC4001C4AA31C9B0013445960009A0A9B13405E
:106CD40002339B00174A134404330593039BDBB22E
:106CE40003F00703D9B2059A137861F3C50313704F
:106CF400019BDBB203F00F03D9B2059A138861F349
:106D040089131380029BC3F31501059A136861F379
:106D14009F231360059A1378012161F30103137013
:106D2400059A13786FF38203137000BF08B010BD87
:106D340010FC02004034002000B58DB00390029195
:106D440013468DF80730039B03330A9301238DF810
:106D5400273000238DF81B300DF11B03184601F07A
:106D6400E9FE414B1A68029B1A603F4B9A683E4BFE
:106D740059683D4B1B68CB1A134401330B9314E041
:106D840001213A4801F081FFFFF7CEFE08900899EF
:106D9400364801F07AFF344B9A68334B5968324BCA
:106DA4001B68CB1A134401330B930A9A0B9B9A4228
:106DB400E6D89DF82730002B4AD0002305939DF890
:106DC4000730002B18D09DF81430012262F3010320
:106DD4008DF814309DF8143043F004038DF814300A
:106DE400039BDBB203F00F03DAB2BDF8143062F395
:106DF4008913ADF8143017E09DF81430022262F3C1
:106E040001038DF814309DF8143043F004038DF819
:106E14001430039B9BB2C3F309039AB2BDF8163036
:106E240062F38F13ADF816300F4B1A680E4B9B6844
:106E3400134002339B000C4A134404330793059A0E
:106E4400079B1A60084B1A680A9B1344064A13608E
:106E54009DF81B30184601F083FE9DF82730184634
:106E64000DB05DF804FB00BF403400205C38002006
:106E740000B58BB005900491039202931F4B9B685D
:106E8400079306AB012219460298FFF755FF034604
:106E9400002B24D0069B033309930023089311E0AD
:106EA400099B5A1C0992079A1340089A9200039965
:106EB4000A441268114902339B000B445A60089B30
:106EC40001330893089A029B9A42E9D3069A079BD6
:106ED40000931346029A04990598FFF7C3FE074BE3
:106EE40093F82034002B05D000BF00F081F803464E
:106EF400002BFAD100BF0BB05DF804FB4034002036
:106F040000B583B0019000910023002200990198FC
:106F1400FFF7AEFF00BF03B05DF804FB00B587B018
:106F2400039002910192019B059305AA0123029902
:106F34000398FFF79DFF00BF07B05DF804FB00B5A1
:106F440087B00390029101920093019B0493009BEC
:106F5400059304AA022302990398FFF789FF00BF4F
:106F640007B05DF804FB00B58BB003900291019269
:106F74000093019B0593009B06930C9B07930D9B29
:106F840008930E9B099305AA052302990398FFF71A
:106F94006FFF00BF0BB05DF804FB00B58BB003902E
:106FA400029101920093019B0493009B05930C9B17
:106FB40006930D9B07930E9B08930F9B099304AABA
:106FC400062302990398FFF753FF00BF0BB05DF847
:106FD40004FB0000054B5A68044B1B689A420CBF23
:106FE40001230023DBB21846704700BF4034002061
:106FF40000B599B0FFF7EEFF0346002B01D0002344
:10700400B8E19A4B0022C3F81824BFF34F8F974B73
:107014005B680493954B9B681093049A109B1340F0
:1070240002339B00914A13440433179300231693AD
:107034000023159300230F9304AB19461798FFF709
:1070440011FD0346002B14D0884B1A68049B9A4206
:1070540005D8864B1B68854A536000238AE1049A4D
:10706400109B134002339B00804A1344043317934C
:10707400E2E700BF0023149311E0149B9B0001AAD4
:107084001A44049B591C049110990B40774902330C
:107094009B000B445B681360149B01331493149B93
:1070A400022BEAD99DF8043003F00303DBB2022B70
:1070B40040F09C80BDF80630C3F389139BB20E9355
:1070C400BDF80630C3F389139BB2502BA8BF5023DD
:1070D4000D930D9B9BB2C3F309039AB2BDF806301E
:1070E40062F38F13ADF806300D9B0C330C939DF8AF
:1070F4000430C3F3C203DBB20F930C995C4802F073
:1071040048FB1690169B002B00F0D480169802F0D2
:10711400D0FB01A9159B0C22169802F073FC159B59
:107124000C331593049BDA43109B134001339B00EB
:107134000B930D9A0B9B9A4242D90B9B002B08D0C0
:10714400049A109B134002339B00484A13440433AF
:1071540000E0484B0A930B9B002B02D00B9BDBB245
:1071640001E00D9BDBB28DF827300B9B002B01D087
:10717400404B00E0002308930B9B002B06D00D9B93
:10718400DAB20B9BDBB2D31ADBB200E000238DF83A
:107194001F309DF82720159B0A99169802F032FC9F
:1071A4009DF82730159A13441593089B002B16D08D
:1071B4009DF81F20159B0899169802F023FC0EE0F9
:1071C400049A109B134002339B00284A134404334F
:1071D4000693159B0D9A0699169802F013FC0E9BC4
:1071E40003339A08049B1344049363E09DF804302A
:1071F40003F00303DBB2012B5CD1BDF80430C3F30D
:107204008313DBB2062B28BF0623DBB203F00F0384
:10721400DAB2BDF8043062F38913ADF80430BDF876
:107224000430C3F38313DBB2033305939DF80430B6
:10723400C3F3C203DBB20F93059B9B0019460C48B2
:1072440002F0A7FA1690169B002B33D0169802F082
:1072540030FB01A9159B0C22169802F0D3FB159B59
:107264000C331593002314931BE000BF403400201B
:1072740090FA02004C340020049B5A1C0492109A89
:10728400134002339B003D4A1344191D159B0422ED
:10729400169802F0B7FB159B04331593149B013326
:1072A4001493BDF80430C3F38313DBB21A46149B62
:1072B4009A42E1D8169B002B3FD0304BD3F81034C0
:1072C40013932E4BD3F81834002B1AD0169802F0CF
:1072D400FFFA49E000238DF84B301398FFF7D1FAF9
:1072E4000346002B02D001238DF84B309DF84B3020
:1072F400002B03D016991398FFF782FA139B5B684F
:107304001393139B002BE5D1169802F0E1FA0023A6
:107314008DF803300DF10303184601F00BFC174BF5
:10732400D3F81834002B02D1049B144A53609DF8FF
:107334000330184601F014FC16E0104BD3F8103457
:10734400119305E01198FFF775FA119B5B6811938F
:10735400119B002BF6D10A4B1B881B0443F002033C
:1073640008491846FFF7CCFDFFF734FE034683F0C7
:107374000103DBB2184619B05DF804FB4034002069
:10738400383200206CFC020000B585B00023039362
:1073940022E0164BD3F81034029301238DF8073002
:1073A4000EE00298FFF75EFA03461A46039B9A42E0
:1073B40003D100238DF8073005E0029B5B6802933C
:1073C400029B002BEDD19DF80730002B01D0039BCD
:1073D40007E0039B01330393039B092BD9DD4FF093
:1073E400FF33184605B05DF804FB00BF40340020AD
:1073F40000B585B001900B468DF80330FFF7C4FF4C
:107404000390039BB3F1FF3F01D1039B1EE0039B59
:10741400DBB219460198FFF719FA0E4BD3F8103472
:10742400002B07D10B4A019BC2F81034019B0022A8
:107434005A600AE0074BD3F810345A68019B5A602B
:10744400044BD3F81034019A5A60039B184605B0D4
:107454005DF804FB4034002000B583B00C4BD3F836
:10746400103401930A4B012283F8202408E0019888
:10747400FFF7FFF90198FFF7D1F9019B5B680193CE
:10748400019B002BF3D100BF03B05DF804FB00BFE8
:107494004034002000B58DB0059004912F4B1B683B
:1074A400049AB2FBF3F304932D4B1B68049AB2FBCA
:1074B400F3F30B930B9B2B4AA2FB0323DB0A0A93E4
:1074C4000A9B4FF4616202FB03F30B9AD31A0B93EA
:1074D4000B9B254AA2FB03235B090993099A1346D4
:1074E4001B019B1A9B001A460B9B9B1A0B931C4B6C
:1074F4001A68049BB3FBF2F102FB01F29B1A089396
:10750400089B4FF47A7202FB03F2154B1B68B2FB23
:10751400F3F30793089B4FF47A7202FB03F2104BC8
:107524001B68079901FB03F3D31A4FF47A7202FB29
:1075340003F20B4B1B68B2FBF3F30693069B029317
:10754400079B01930B9B0093099B0A9A0749059893
:1075540001F016FD00BF0DB05DF804FB6838002093
:1075640064380020C5B3A29189888888E8FC0200A9
:1075740010B584B003900291039BDB88002B0AD0E2
:10758400039BDB881A461F4B009313461E4A1F4970
:10759400029801F0F5FC039B1B7A052B2ED0039B6C
:1075A4005B7A002B12D0039B9B881A46039B1B7AA1
:1075B40019461046FFF71EFA03461A46144B53F8B1
:1075C40022301A461349029801F0DAFC039B1B6827
:1075D40019460298FFF75EFF039B1B7A1A460E4B6F
:1075E40053F82240039B9B8800211846FFF7E2F9D9
:1075F400034622460949029801F0C2FC00BF04B0C8
:1076040010BD00BFA0FC0200B0FC020004FD02009B
:10761400943200201CFD02008032002020FD020074
:1076240000B585B00390029113468DF80730039B93
:107634001B7A052B0FD0039B5B7A002B06D00D4BD6
:107644001B681A460C49029801F09AFC0B490298EF
:1076540001F096FC07E09DF80730002B03D00749A2
:10766400029801F08DFC029801F068FC00BF05B09F
:107674005DF804FB943200201CFD02002CFD020086
:1076840030B58BB007900691059204930E9B1B7B3B
:107694008DF827300E9B00221A730E990498FFF779
:1076A40067FF059B062B7FD801A252F823F000BF89
:1076B400D1760200DB760200EB760200FF76020050
:1076C4001D770200457702007577020007990E982E
:1076D40001F056FC69E0069B1B681A4607990E9850
:1076E40001F04EFC61E0069B1A68069B04331B689C
:1076F40007990E9801F044FC57E0069B1A68069B14
:1077040004331968069B08331B6800930B460799DA
:107714000E9801F035FC48E0069B1968069B04337B
:107724001868069B08331B68069A0C32126801928B
:10773400009303460A4607990E9801F021FC34E0B1
:10774400069B1868069B04331C68069B08331B6859
:10775400069A0C3212680699103109680291019256
:1077640000932346024607990E9801F009FC1CE099
:10777400069B1C68069B04331D68069B08331B6824
:10778400069A0C321268069910310968069814306A
:10779400006803900291019200932B4622460799B8
:1077A4000E9801F0EDFB00E000BF00220E99049852
:1077B400FFF736FF0E9B9DF827201A7300BF0BB00E
:1077C40030BD00BF00B587B00390029101920093D1
:1077D400029B082B5CD8009B1B7B8DF81330009B0D
:1077E40000221A7300990198FFF7C2FE0023059343
:1077F40014E0059A029B9A4209D2039A059B13440A
:107804001B781A462449009801F0BAFB03E0234987
:10781400009801F0B5FB059B01330593059B072BED
:10782400E7D91F49009801F0ABFB0023059322E040
:10783400059A029B9A4217D2039A059B13441B781C
:107844008DF812309DF81230184607F0F9FF034600
:10785400002B02D09DF8123000E02E231A46114965
:10786400009801F08DFB03E00F49009801F088FBBC
:10787400059B01330593059B072BD9D90122009958
:107884000198FFF7CDFE009B9DF813201A7300E0CA
:1078940000BF07B05DF804FB30FD020038FD0200B4
:1078A4003CFD020040FD020044FD020082B0019054
:1078B4000A4B01221A6007E0019B5B080193074B06
:1078C4001B685B00054A1360019B054A9342F3D889
:1078D400044A019B136000BF02B07047683800205F
:1078E40040420F00643800202DE9F04F89B0019028
:1078F40000238DF81F3098E0514B1A689DF81F3013
:10790400DB0013440693069B1B7819464FF00102D3
:107914004FF00003A1F1200EC1F1200003FA01F998
:1079240002FA0EFE49EA0E0922FA00F049EA0009B9
:1079340002FA01F8CDE90489424BD3E90001DDE9FB
:10794400042302EA000203EA0103134368D0DDE9D9
:1079540004236FEA02006FEA03013A4BD3E90023E0
:1079640002EA000203EA01033649C1E90023069B47
:107974001B78184603F04EFE03468DF80F30069B25
:107984001B7819464FF001024FF00003A1F1200EBD
:10799400C1F1200003FA01F502FA0EFE45EA0E05D4
:1079A40022FA00F0054302FA01F4274BD3E900233D
:1079B40004EA020A05EA030B9DF80F204FF00003C6
:1079C40006990978A1F1200EC1F1200003FA01F70C
:1079D40002FA0EFE47EA0E0722FA00F0074302FA03
:1079E40001F6BB4508BFB2451AD19DF80F30069A7F
:1079F4005278012A0CBF01220022D2B293420CBF5A
:107A040001230023DBB20293069B5B68002B07D0A3
:107A1400069B5B68069A12780299C9B21046984789
:107A24009DF81F3001338DF81F30084B1B789DF8EB
:107A34001F209A42FFF460AF00BF09B0BDE8F08F89
:107A44006C380020A03800209838002070380020BE
:107A540070B586B001900A468DF803204FF00101FD
:107A64004FF000020198A0F12006C0F1200502FAAF
:107A740000F401FA06F6344321FA05F52C4301FA21
:107A840000F3CDE904342F4B184600F0B9FF0390FE
:107A9400039B002B53D12C4BD3E90012DDE90434B2
:107AA40003EA010304EA0204234337D1019803F0F3
:107AB400B1FD0346002B0CD0244BD3E90012DDE9C1
:107AC400043443EA010344EA0204204AC2E90034CC
:107AD4000FE0DDE904346FEA03016FEA04021B4B93
:107AE400D3E9003403EA010304EA0204174AC2E9B1
:107AF4000034154BD3E90012DDE9043443EA0103F1
:107B040044EA0204104AC2E900340E48104B1B68D0
:107B14000022194600F042FF039011E0DDE904342D
:107B24006FEA03016FEA0402074BD3E9003403EA66
:107B3400010304EA0204044AC2E9003400E000BF7D
:107B440006B070BD78380020A03800209838002096
:107B54007438002010B58AB003900B4601928DF85A
:107B64000B30019B042B01D807235AE003F044FC9B
:107B7400034683F00103DBB2002B09D003F0EAFBD8
:107B84000990099B0893089B002B01D0089B48E0AF
:107B9400254A039B1360254A9DF80B301370244A31
:107BA400019B1360234A4FF000034FF00004C2E925
:107BB4000034214A4FF000034FF00004C2E90034BE
:107BC40022E09DF80B30DB00039A1344079305ABC6
:107BD40000210A461A800A469A7003238DF814304D
:107BE400079B9B788DF81530079B1B78184605ABCF
:107BF400124A194603F00CFC0990099B0693069B54
:107C0400002B01D0069B0CE09DF80B305A1E8DF81A
:107C14000B20002BD5D10A4A00210A4800F08EFE21
:107C2400034618460AB010BD6C3800207038002096
:107C34007438002098380020A0380020557A0200BB
:107C4400ED78020048FD020000B583B0114B1B68BB
:107C5400002B03D11049BA2000F0B9FF002301938F
:107C64000CE00C4B1A68019BDB0013441B780121C8
:107C7400184603F047FC019B01330193074B1B7823
:107C84001A46019B9A42ECD80023184603B05DF8CB
:107C940004FB00BF6C3800204CFD0200703800204B
:107CA40086B003900291019201238DF817309DF85C
:107CB40017301F4A039B13601D4A029B53601C4AE2
:107CC400019B9360039B44F20102934212D044F25D
:107CD4000202934221D1019B154AD360144BDB6805
:107CE4001B881A46124B9A61114BDB685B68104A79
:107CF400D36112E0019B0E4A13610D4B1B699B6813
:107D04000B4A53610A4B1B691B68094A9361084B70
:107D14001B695B68064AD36100BF72B600BF9DF859
:107D24001730DBB2002BFAD162B600BF06B0704741
:107D3400A838002000B583B002900091019244F26B
:107D4400010071466A4600F003F803B000BD00BFAD
:107D540030B58BB007900691059272B6FFF77CFBA5
:107D640000BFFFF745F90346002BFAD1079B41F208
:107D74000102934219D041F20102934202D8012B2D
:107D840009D057E044F20102934229D044F202029E
:107D9400934214D04EE0344B1B881B0443F0010380
:107DA40032491846FFF7ACF84FE02F4B1B881B04F1
:107DB40043F001032E491846FFF7A2F845E0059B5E
:107DC4000993294B1B881B0443F001031846099BA4
:107DD4005B681A46099B1B882649FFF7B0F834E014
:107DE400059B0893204B1B881B0443F001031D468D
:107DF400089B9C68089B9B68184601F01DFF03467E
:107E04001846089B5B681946089B1B68069A0292F1
:107E1400019300910346224617492846FFF7A3F829
:107E2400114B1B881B0443F0010314491846FFF748
:107E340067F80AE00C4B1B881B0443F00103069A05
:107E44000F491846FFF76AF800BF0E4B1B6803F092
:107E54000103002B00D000BE059A06990798FFF78E
:107E64001FFF00BF0BB030BD3832002094FD02006C
:107E7400B4FD0200D8FD0200F4FD02001CFE020065
:107E840030FE0200F0ED00E082B003468DF80730CA
:107E940007499DF907305B099DF8072002F01F028E
:107EA400012000FA02F241F8232000BF02B070471B
:107EB40000E100E082B003468DF8073008499DF9DF
:107EC40007305B099DF8072002F01F02012000FA29
:107ED40002F2203341F8232000BF02B0704700BFF4
:107EE40000E100E082B003468DF8073008499DF9AF
:107EF40007305B099DF8072002F01F02012000FAF9
:107F040002F2403341F8232000BF02B0704700BFA3
:107F140000E100E082B003468DF8073008499DF97E
:107F240007305B099DF8072002F01F02012000FAC8
:107F340002F2603341F8232000BF02B0704700BF53
:107F440000E100E082B0034600918DF807309DF90E
:107F54000730002B0CDA0D499DF8073003F00F03AE
:107F6400043B009AD2B25201D2B20B441A7609E011
:107F740007499DF90730009AD2B25201D2B20B449C
:107F840083F8002300BF02B0704700BF00ED00E09B
:107F940000E100E000B585B00190019B002B0AD000
:107FA400074B43F001030393019B9B010293039B43
:107FB4000298984700E000BF05B05DF804FB00BFDD
:107FC40050FE020000B583B00190064A019BC2F83E
:107FD400083507211120FFF7B5FF00BF03B05DF896
:107FE40004FB00BF0010014008B50D4B4FF4803274
:107FF400C3F844230A4B4FF48032C3F804231120FE
:10800400FFF788FF1120FFF73FFF054B01221A609D
:108014002F20FFF7BFFF034B01221A7000BF08BDDA
:1080240000100140E639002008B51120FFF742FF97
:108034000E4B4FF48032C3F848230C4B4FF480327C
:10804400C3F80823094B01225A602F20FFF7A2FF2F
:10805400064B01229A60064B00221A602F20FFF77C
:1080640099FF044B00221A7000BF08BD00100140A4
:10807400D8390020E6390020024BD3F804351846DD
:10808400704700BF0010014082B001900091019A36
:10809400009BD31A23F07F43184602B070470000B8
:1080A40082B00190034A019BC2F8403500BF02B080
:1080B400704700BF0010014086B00190284B1B6838
:1080C400002B03D1264A019B136045E0019B1A68EB
:1080D400234B1B681B689A4210D8214B1B68204A0B
:1080E40012681168019A12688A1A1A601C4B1A687D
:1080F400019BDA611A4A019B13602DE0019B1B6806
:108104000393174B1B680593154B1B68049309E0F5
:10811400049B1B68039AD31A0393049B0593049B43
:10812400DB690493049B002B04D0049B1A68039B13
:108134009A42EDD3049B002B05D0049B1A68039B41
:10814400D21A049B1A60019B039A1A60019B049A39
:10815400DA61059B019ADA6100BF06B0704700BF7F
:10816400D439002000B587B001902A4B1B680393D3
:10817400284B1B680593059B049308E0049A019B14
:108184009A4208D0049B0593049BDB690493049BE7
:10819400002BF3D100E000BF049B002B01D100238E
:1081A40033E0059A049B9A4214D11A4B1B68DB698D
:1081B400184A1360174B1B68002B0BD1164B012276
:1081C4009A60164B00221A60154B01221A702F2058
:1081D400FFF7E0FE049B1B680293049BDA69059B8E
:1081E400DA61059BDB690493049B002B05D0049B97
:1081F4001A68029B1A44049B1A60064B1B68039A74
:108204009A4214BF01230023DBB2184607B05DF87D
:1082140004FB00BFD439002000100140D8390020ED
:10822400E739002008B51120FFF75CFE00BF08BD48
:1082340008B51420FFF756FE00BF08BD00B583B093
:108244000190019B5B69019A92691046984700BFAF
:1082540003B05DF804FB000000B585B02B4B1B6830
:10826400002B4ED000230193FFF706FF0246284B54
:108274001B6819461046FFF707FF0290234B1B6843
:1082840003931DE0039B1A68029B9A421CD8039B2C
:108294001B68029AD31A0293039B1B68019A134426
:1082A4000193039B0093039BDB690393009B1B7C5B
:1082B400002B05D0009B00221A740098FFF7BEFF24
:1082C400039B002BDED100E000BF124B1A78124B47
:1082D4001B789A420CD1104B1B780133DAB20E4B47
:1082E4001A700D4B1B78022B02D10B4B00221A7013
:1082F400094B1B781946094A019B42F82130FFF7C4
:1083040097FF00BF05B05DF804FB00BFD43900201F
:10831400D8390020E4390020E5390020DC39002078
:1083240082B00190184B1A78184B1B789A4223D0CC
:10833400154B1B780133DAB2134B1A70124B1B78AE
:10834400022B02D1104B00221A700F4B1B781A46D5
:108354000F4B53F82220019B1A60019B1A680D4BA6
:108364001B6813440B4A13600A4B1B6823F07F43BA
:10837400084A1360012303E0019B00221A600023D2
:10838400184602B0704700BFE4390020E5390020E8
:10839400DC390020D839002088B003900291019282
:1083A4000023079338E0204B1B680693069B1A684A
:1083B400039B9A4206D9069B1A68039BD21A069B12
:1083C4001A602DE0069B1B68039AD31A0393069B3D
:1083D4001B68079A13440793069B00221A60124BEA
:1083E4001B680593069BDB690F4A1360069BDB68D9
:1083F400002B11D0029A079B134423F07F42069B63
:108404005A60069BDA68069B9A60019B1A68069B71
:10841400DA61019B059A1A60034B1B68002BC2D1D9
:1084240000BF08B0704700BFD439002000B589B040
:10843400019000238DF81F30664B1B680593AAE05A
:10844400019B002B05D0019B0693069BDB690193DE
:1084540061E0614B1B781A4613465B001344DB0052
:108464005D4A1344043304935B4B1B780133DAB243
:10847400594B1A70584B1A78574B9B789A4202D131
:10848400554B00221A70049B5B680693049B1B786F
:10849400022B04D0032B1BD0012B1FD01DE0049B07
:1084A4005B681846FFF75EFE0346002B02D00123EB
:1084B4008DF81F30069B00221A746CE0454B1B6834
:1084C4000393039B00221A74039BDB69414A1360E4
:1084D400404B1B68002BF1D15DE05CE000BF069BC4
:1084E4001B7C002B00D056E0049B9A68069B5A60C4
:1084F400049BDA68069B9A60049B1A69069BDA60FF
:10850400049B5A69069B9A61344B1B78002B02D05A
:10851400069B00225A60069B5A68314B1B68D31A8B
:1085240023F07F432F4A93420ED8069B5A682C4B64
:108534001B6819461046FFF7A7FD0246069B9B6879
:108544001A44069B1A6017E0254B1A68069B5B6861
:1085540019461046FFF798FD0290069B9A68029B05
:108564009A4206D9069B9A68029BD21A069B1A6005
:1085740002E0069B00221A60069B00225A60069BBA
:1085840000229A60069B01221A74069B0022DA617B
:108594000698FFF791FD019B002B7FF451AF0E4B22
:1085A4001A780D4B5B789A427FF44AAF9DF81F30DE
:1085B400002B04D1074B1A68059B9A4201D0012372
:1085C40000E0002303F00103DBB2184609B05DF8B4
:1085D40004FB00BFD4390020C8380020E73900204C
:1085E400D8390020FEFF7F0010B588B00190274BDA
:1085F4001B68002B44D0254B1B681B680793FFF7AF
:108604003BFD0690224B1B68059305990698FFF7DE
:108614003BFD0346033304931E4B1B7883F0010395
:10862400DBB2002B01D0FFF7DFFC049A079B9342D7
:1086340038BF1346059A13440593059B23F07F43E3
:1086440005930598FFF72CFDFFF716FD0390069997
:108654000398FFF719FD0346DC1C06990598FFF7FC
:1086640013FD03469C420DD9FFF706FD0346184649
:10867400FFF716FD2F20FFF78DFCFFF7D3FD01E078
:10868400FFF7D2FC00BF08B010BD00BFD4390020F2
:10869400D8390020E639002000B587B000230193C3
:1086A40000238DF81730194B1B680493184B1B6873
:1086B40003936B461846FFF733FE03468DF80B30E1
:1086C4009DF80B30002B08D0009B01AA0499184692
:1086D400FFF762FE01238DF81730019B1846FFF760
:1086E400A5FE0346002B02D001238DF817309DF818
:1086F4001730002B02D00398FFF776FF054B0022BA
:108704001A7000BF07B05DF804FB00BFD839002021
:10871400D4390020E739002082B003468DF80730B1
:10872400034A9DF80730537000BF02B0704700BF82
:10873400C838002084B00190144B5B7801338DF865
:108744000F30124B9B789DF80F209A4202D10023E0
:108754008DF80F300D4B1B789DF80F209A4201D1F4
:1087640000230FE0019B9DF80F201A70074B5B78E4
:108774001A4613465B001344DB00044A13440433D3
:108784000293029B184604B0704700BFC83800200B
:1087940000B589B0039002910192009300230793DE
:1087A40000238DF816300DF11603184600F0C2F9B7
:1087B4000DF117031846FFF7BDFF0690069B002B2B
:1087C40002D10423079318E0069B01221A70069B2A
:1087D400039A5A60FFF750FC0246069B9A60069B78
:1087E400029ADA60069B019A1A61069B009A5A6102
:1087F4009DF817301846FFF78FFF9DF8163018467E
:1088040000F0AEF9079B002B01D1FFF711FD079B88
:10881400184609B05DF804FB00B587B001900B461B
:108824008DF803300023059300238DF80E300DF1ED
:108834000E03184600F07EF90DF10F031846FFF7FA
:1088440079FF0490049B002B02D1042305930BE0D1
:10885400049B9DF803201A70049B019A5A609DF8AA
:108864000F301846FFF758FF9DF80E30184600F0F9
:1088740077F9059B002B01D1FFF7DAFC059B18461D
:1088840007B05DF804FB000008B50E4B0022C3F8E6
:1088940040210C4B0022C3F844210A4B0022C3F8A8
:1088A4004821084B0022C3F84C21064B0022C3F890
:1088B4000021044B0022C3F80421FFF7CDFC00BFC4
:1088C40008BD00BF0010014008B5FFF7E5FE00BF7A
:1088D40008BD000008B5FFF7A7FB134B00221A7070
:1088E400114B00225A70104B0B229A700F4B00222E
:1088F4001A600F4B00221A700E4B00221A701420BB
:10890400FFF708FB07211420FFF71CFB1420FFF7D7
:10891400BBFA1F20FFF756FBFFF7AEFB0246064BE0
:108924001A600023184608BDC8380020D439002036
:10893400E4390020E5390020D839002086B00390BE
:108944000B4601928DF80B30134B9B78002B01D111
:1089540008231EE0019B002B01D1072319E0039B90
:10896400002B01D1072314E0039B1B681B7C002B05
:1089740001D008230DE0039B1B680593059B00228F
:108984001A74059B9DF80B205A74059B019A5A6131
:108994000023184606B07047C838002000B587B0D9
:1089A400039002910192039B0593144B9B78002B37
:1089B40001D108231EE0039B002B01D1082319E0F9
:1089C400029B042B01D8072314E0059B5B69002B51
:1089D40001D108230EE0059B5B7C012B01D1029B96
:1089E40000E000230493019B049A02990598FFF781
:1089F400CFFE0346184607B05DF804FBC8380020D4
:108A040000B585B00190019B03930D4B9B78002B1F
:108A140001D1082310E0019B002B03D0039B5B6969
:108A2400002B01D1082307E0039B00221A740221C2
:108A34000398FFF7F1FE0346184605B05DF804FB02
:108A4400C838002008B5FFF717FB0346184608BDD1
:108A540082B0EFF310830093009B019372B6019BE5
:108A6400184602B0704762B600BF704700B585B0C3
:108A74000190FFF7EDFF0390164B9B68002B1BD171
:108A8400144B01229A60144BD3F88020134B1340EB
:108A9400104A1360104B114AC3F880200E4BD3F8D0
:108AA40084300C4A53600C4B4FF0FF32C3F88420DF
:108AB400019B00221A7002E0019B01221A70039BA1
:108AC400002B01D1FFF7CFFF0023184605B05DF856
:108AD40004FB00BFE839002000E100E0FC06FFBD14
:108AE40000B585B003468DF80730104B9B68002B0A
:108AF40016D09DF80730002B12D1FFF7A9FF039081
:108B04000B4A0A4B1B681360094A084B5B685360A5
:108B1400064B00229A60039B002B01D1FFF7A3FFB1
:108B24000023184605B05DF804FB00BFE8390020B7
:108B340000E100E000B583B0019000F02BF803469B
:108B4400012B03D00549432000F041F80198FFF7B9
:108B54008DFF00BF03B05DF804FB00BF58FE0200A8
:108B640000B583B003468DF8073000F013F80346D0
:108B7400012B03D00649512000F029F89DF8073055
:108B84001846FFF7ADFF00BF03B05DF804FB00BF5C
:108B940058FE020084B0EFF305830193019BC3F3F5
:108BA40008030393039B002B0DD1EFF3148300936D
:108BB400009B0293029B03F00103002B0CBF0123D3
:108BC4000023DBB200E00123184604B0704700B56F
:108BD40085B003460091ADF80630BDF80630ADF817
:108BE4000830009B039302AB1A46002144F20200B2
:108BF400FFF7AEF800BF05B05DF804FB10B487B012
:108C040001900091019B009A53E8004F104643E8FD
:108C1400000191F0000FF7D1059404900391059B96
:108C2400184607B05DF8044B704710B487B0019044
:108C34000091019B009A53E8004F44EA020043E884
:108C4400000191F0000FF6D1059404900391049B68
:108C5400184607B05DF8044B704710B487B0019014
:108C64000091019B009A53E8004F04EA020043E894
:108C7400000191F0000FF6D1059404900391059B37
:108C8400184607B05DF8044B704710B487B00190E4
:108C94000091019B009A53E8004F04EB020043E863
:108CA400000191F0000FF6D1059404900391049B08
:108CB400184607B05DF8044B704710B487B00190B4
:108CC4000091019B009A53E8004FA4EB020043E893
:108CD400000191F0000FF6D1059404900391049BD8
:108CE400184607B05DF8044B704700B583B0019097
:108CF40001210198FFF799FF0346184603B05DF878
:108D040004FB00B583B0019000210198FFF7A5FF93
:108D14000346184603B05DF804FB000000B583B0B9
:108D240001900B468DF80330019B002B03D10849B9
:108D3400E820FFF74CFF019BDA689DF803300199A6
:108D4400898A01FB03F31344184603B05DF804FB5E
:108D5400A8FE020000B583B001900091019B002B96
:108D640003D10849F520FFF732FF009B019AD2682E
:108D74009B1A019A928AB3FBF2F3DBB2184603B052
:108D84005DF804FBA8FE020000B585B00190019BCC
:108D9400002B01D10E234DE0019B1B68002B03D156
:108DA4002649FF20FFF713FF019B5B68002B04D1CA
:108DB40022494FF48070FFF70AFF019B9B68002B48
:108DC40004D11E4940F20110FFF701FF019BDB684B
:108DD400002B04D119494FF48170FFF7F8FE019B71
:108DE4009B8A002B04D1154940F20310FFF7EFFED4
:108DF400019B9B681A46019B5B68D31A8DF80F3060
:108E0400019B1B68019A52681A6007E0019B1A686B
:108E14001368591C11609DF80F201A709DF80F30CB
:108E24005A1E8DF80F20002BF0D1019B1B680022E5
:108E34001A710023184605B05DF804FBA8FE020071
:108E440000B585B00190019B002B04D120494FF45B
:108E54009270FFF7BCFE0023039300238DF80A30C1
:108E64000DF10A031846FFF765FE019B1B681A689B
:108E7400019B5B689A4220D9019B1B681A68013ADE
:108E84001A601B681B7819460198FFF747FF039087
:108E9400019B9B681A46019B1B681B68D31A8DF8BB
:108EA4000B30019B1B681B799DF80B209A4204D957
:108EB400019B1B689DF80B201A719DF80A30184617
:108EC400FFF74EFE039B184605B05DF804FB00BF98
:108ED400A8FE020010B584B001900091019B002B04
:108EE40004D1154940F24710FFF771FE009B002B97
:108EF40004D111494FF4A470FFF769FE009B03935A
:108F040000238DF80B300DF10B031846FFF712FE0A
:108F1400019B1B681C68621C1A6003990198FFF787
:108F240019FF034623709DF80B301846FFF718FE0F
:108F340000BF04B010BD00BFA8FE020000B583B09E
:108F44000190019B002B03D10C493120FFF73FFE18
:108F5400019B9B68002B0CD0019B5B69019A1069F3
:108F6400019A1168019A92689847019B00229A60BD
:108F740000E000BF03B05DF804FB00BFF0FE020098
:108F84000EB400B584B00190019B002B03D11849A5
:108F94004220FFF71CFE019B5B69002B03D114499F
:108FA4004320FFF714FE019B1B68002B03D11049DB
:108FB4004420FFF70CFE019B5B68002B03D10C4996
:108FC4004520FFF704FE059B002B0AD000230393E2
:108FD40006AB039303AB1A460599019800F0B0F968
:108FE40000E000BF04B05DF804EB03B0704700BFBD
:108FF400F0FE020000B583B001900B468DF80330FB
:10900400019B1A68019B9B68581C01998860134452
:109014009DF803201A70019B9A68019B5B689A4231
:1090240002D30198FFF78AFF00BF03B05DF804FB89
:1090340000B587B003900291019200930023059339
:10904400009B03F00103002B24D00BE0029B0133AF
:109054000293059B013305939DF813301946039839
:10906400FFF7C8FF029B1B788DF813309DF813306F
:10907400002BEBD106E0019B013B019320210398D7
:10908400FFF7B8FF019A059B9A422ED9019B002B4A
:10909400F1D12AE0029B002B0BD0029806F08AFC47
:1090A400059006E0019B013B019320210398FFF703
:1090B400A1FF019A059B9A420FD9019B002BF1D184
:1090C4000BE0029B01330293059B013305939DF84A
:1090D400133019460398FFF78DFF029B1B788DF818
:1090E40013309DF81330002BEBD100BF07B05DF8AF
:1090F40004FB000000B589B0039002910192009333
:10910400029B07930123069307E0079A019BB2FB96
:10911400F3F30793069B01330693079A019B9A4244
:10912400F3D2009A069B9A4201D9009B06930B9BAB
:1091340003F00103002B22D10A9B002B1FD00B9BB1
:1091440003F00203002B06D0009B002B03D1302335
:109154008DF8173002E020238DF8173008E00A9BC1
:10916400013B0A939DF8173019460398FFF742FF15
:109174000A9B002B03D0069A0A9B9A42EFD3012341
:109184000793009B012B03D9009B013B009309E04B
:10919400029A079BB2FBF3F30493049A019B9A424D
:1091A40000D205E0079B019A02FB03F30793E8E76B
:1091B400029A079BB2FBF3F30493049B079A02FB06
:1091C40003F3029AD31A0293154A049B13441B789F
:1091D40019460398FFF70EFF079A019BB2FBF3F3BE
:1091E4000793079B002BE3D10B9B03F00103002B98
:1091F40011D00A9B002B0ED006E00A9B013B0A9378
:1092040020210398FFF7F6FE0A9B002B03D0069A51
:109214000A9B9A42F1D300BF09B05DF804FB00BF7A
:1092240078FF020000B589B005900491039202937F
:10923400049B002BB8BF5B4206930123079307E00E
:10924400039B069A92FBF3F30693079B0133079360
:10925400039B069A9A42F3DA029A079B9A4201D92F
:10926400029B07930A9B002B0AD0049B002B04DB70
:109274000B9B03F00403002B02D00A9B013B0A93CF
:109284000B9B03F00203002B02D0029B002B16D091
:109294000B9B03F00103002B11D10A9B002B0ED072
:1092A40006E00A9B013B0A9320210598FFF7A2FEE2
:1092B4000A9B002B03D0079A0A9B9A42F1D3049B82
:1092C400002B07DA049B5B4204932D210598FFF7DA
:1092D40091FE08E00B9B03F00403002B03D02B2129
:1092E4000598FFF787FE0B9B03F00203002B19D0B0
:1092F4000B9B03F00103002B14D1029B002B11D113
:109304000A9B002B0ED006E00A9B013B0A933021F6
:109314000598FFF76FFE0A9B002B03D0079A0A9B60
:109324009A42F1D304990B9B01930A9B0093029BED
:10933400039A0598FFF7DEFE00BF09B05DF804FB51
:1093440000B58FB0059004910392059B002B04D1C6
:10935400C8494FF49F70FFF73AFC059B5B69002BEB
:1093640004D1C4494FF4A070FFF731FC059B1B687E
:10937400002B04D1BF4940F24110FFF728FC059BA4
:109384005B68002B04D1BB494FF4A170FFF71FFCAD
:10939400049B002B00F0ED81049B1B788DF8373083
:1093A400049B013304939DF83730002B00F0D881DF
:1093B4009DF83730252B40F0C78100230A93012301
:1093C4000C93049B1B788DF837309DF837302D2B88
:1093D40004D0302B0AD02B2B10D017E00A9B43F07B
:1093E40001030A93049B0133049312E00A9B43F0A4
:1093F40002030A93049B013304930AE00A9B43F09B
:1094040004030A93049B0133049302E000230C93A6
:1094140000BF0C9B002BD4D1002309939DF8373057
:109424002A2B0CD1039B1B68191D039A11601B681E
:10943400099A13440993049B013304931AE0049B8F
:109444001B788DF837309DF837302F2B12D99DF8C3
:109454003730392B0ED8049B01330493099A1346F1
:109464009B0013445B001A469DF837301344303B8D
:109474000993D3E700230B93049B1B788DF83730B3
:109484009DF837302E2B1DD1049B01330493049B8C
:109494001B788DF837309DF837302F2B12D99DF873
:1094A4003730392B0ED8049B013304930B9A13469F
:1094B4009B0013445B001A469DF837301344303B3D
:1094C4000B93E4E7049B1B788DF837309DF8373015
:1094D4006C2B03D09DF83730682B07D1049B0133E4
:1094E4000493049B1B788DF83730EFE79DF83730F1
:1094F400253B532B00F2238101A252F823F000BF35
:1095040039970200439702004397020043970200F1
:1095140043970200439702004397020043970200D7
:1095240043970200439702004397020043970200C7
:1095340043970200439702004397020043970200B7
:1095440043970200439702004397020043970200A7
:109554004397020043970200439702004397020097
:109564004397020043970200439702004397020087
:109574004397020043970200439702004397020077
:109584004397020043970200439702004397020067
:109594004397020043970200439702004397020057
:1095A4004397020043970200439702004397020047
:1095B4004397020043970200439702004397020037
:1095C400439702004397020043970200C5960200A6
:1095D4004397020043970200439702004397020017
:1095E4004397020043970200439702004397020007
:1095F4004397020043970200559602007D960200AD
:1096040043970200439702004397020043970200E6
:109614007D9602004397020043970200439702009D
:109624004397020043970200439702000597020004
:109634004397020043970200E99602004397020011
:10964400A19602004397020043970200C5960200C8
:10965400039B1B68191D039A11601B680C930C9BD8
:109664008DF823309DF8233019460598FFF7C2FC86
:1096740066E000BF30FF0200039B1B68191D039ABC
:1096840011601B680C930A9B0193099B00930B9B2D
:109694000A220C990598FFF7C5FD51E0039B1B684E
:1096A400191D039A11601B680C930C990A9B019372
:1096B400099B00930B9B0A220598FFF71BFD3FE0D3
:1096C400039B1B68191D039A11601B680C930C996A
:1096D4000A9B0193099B00930B9B10220598FFF7AB
:1096E40009FD2DE0039B1B68191D039A11601B687B
:1096F40007930A9B099A07990598FFF799FC1FE0BD
:10970400039B1B68191D039A11601B680C9330217D
:109714000598FFF76FFC78210598FFF76BFC0C990F
:109724000023019308230093082310220598FFF7D0
:10973400E1FC05E025210598FFF75CFC00E000BF93
:10974400049B0133049305E09DF8373019460598CE
:10975400FFF750FC049B1B78002B7FF41DAE00E048
:1097640000BF059B1B7B002B04D00598FFF7E6FB8D
:1097740000E000BF0FB05DF804FB00BF00B583B08C
:1097840001900198FFF700FB0346184603B05DF80B
:1097940004FB00B58BB001900091019B9B8A043BB4
:1097A4000793009A079B1344DA1C079BB2FBF3F35D
:1097B4008DF81B300198FFF743FB0590059B002BA8
:1097C40001D1002338E0059B00221A71059B012278
:1097D4005A71079B9AB2059BDA80059B09939DF801
:1097E4001B30013B0493099B019A1A6000230893E0
:1097F4001DE00198FFF724FB0390039B002B0ED080
:10980400059B5B790133DAB2059B5A71099B039A74
:109814001A60039B019A1A60039B099304E005985C
:1098240000F00EF8002307E0089B01330893089A20
:10983400049B9A42DDD3059B18460BB05DF804FBEC
:1098440000B58BB00190019B0793079B5B798DF862
:109854001B30019B08939DF81B30013B05930023AB
:10986400099305E0089B1B680893099B013309933E
:10987400099A059B9A42F5D3089B1B680493019BA4
:109884000893002309930BE0089B1B680393089932
:109894000498FFF71FFB039B0893099B013309936B
:1098A4009DF81B20099B9A42EED800BF0BB05DF8CF
:1098B40004FB00B585B00190019B0393039B043323
:1098C40001211846FFF7E1F900BF05B05DF804FB7C
:1098D40000B587B00190019B0593059B04330121DA
:1098E4001846FFF7EAF90346039303AB0493049B7A
:1098F4001B78002B02D10198FFF7A2FF00BF07B02D
:109904005DF804FB00B58DB00390029101920093C1
:10991400039B0693069BDB880593039B0B93009B99
:109924001A1D059BB2FBF3F30A93009B0433059ABB
:10993400B3FBF2F2059901FB02F29B1A0993009A18
:10994400019B1A44059B1344DA1C059BB2FBF3F3F9
:109954008DF81330069B5B799DF813209A420AD93F
:109964002749BA20FFF733F905E00B9B1B680B93DB
:109974000A9B013B0A930A9B002BF6D10023089310
:10998400059A099BD31A0793079A019B934228BF10
:10999400134607932DE09DF83830002B0BD0029A24
:1099A400089BD0180B9A099B13440433079A194651
:1099B40005F080FF0AE00B9A099B1344181D029AD4
:1099C400089B1344079A194605F074FF0023099372
:1099D4000B9B1B680B93019A079BD31A0193089A5C
:1099E400079B13440893059A019B934228BF13468F
:1099F4000793019B002BCED100BF0DB05DF804FB93
:109A040088FF020000B587B0059004910392029389
:109A140000230093029B039A04990598FFF772FFB1
:109A240000BF07B05DF804FB00B587B00590049152
:109A34000392029301230093029B039A04990598CD
:109A4400FFF760FF00BF07B05DF804FB82B0034678
:109A54008DF8073008499DF907305B099DF8072008
:109A640002F01F02012000FA02F2603341F82320C1
:109A740000BF02B0704700BF00E100E000B583B052
:109A84000190019B002B03D106497220FFF79FF838
:109A9400019B00221A60BFF35F8F00BF03B05DF823
:109AA40004FB00BF3800030041DF704700BF1846C5
:109AB40000B585B000238DF803300DF1030318467B
:109AC400FFF738F8F1EE103A0193019B0393039BDF
:109AD40023F09F030293029BE1EE103ABFF35F8FE2
:109AE4002620FFF7B3FF9DF803301846FFF738F838
:109AF400039B03F00703002B03D004497620FFF7F0
:109B040066F800BF05B05DF804FB00BF80000300E9
:109B140008B5064B00221A700548FFF7AFFF054948
:109B2400054800F02DF80023184608BDF839002038
:109B3400F4390020CC000300FC39002000B583B0C8
:109B4400FFF7B6FF05F042FB0346002B0ED0FFF7EC
:109B5400ABFF0190019B002B0BD0019B022B08D083
:109B6400064940F25910FFF732F802E020BF40BF27
:109B740020BF00BF03B05DF804FB00BF80000300FA
:109B840000B583B001900091019B002B03D11049D3
:109B94005020FFF71CF8009B002B03D10C495120E7
:109BA400FFF715F8019B009A1A60019B1B681A685D
:109BB400019B5A60019B5A68019B1B685B689A422F
:109BC40002D1019B00225A6000BF03B05DF804FB80
:109BD400D800030000B583B00190019B002B03D192
:109BE40014496320FEF7F3FF019B1B68002B03D18C
:109BF40010496420FEF7EBFF019B5B68002B14D037
:109C0400019B5B681A46019B1B689B6813441A46B8
:109C1400019B5A60019B5A68019B1B685B689A42CE
:109C240004D1019B00225A6000E000BF03B05DF83C
:109C340004FB00BFD800030000B585B00190019873
:109C440000F00EF80390039B002B01D0039B00E06F
:109C5400024B184605B05DF804FB00BF3C0103004D
:109C640086B00190164B0593164B04931FE0049A9B
:109C7400059BD31ADB10DA0F13445B10DB00059A43
:109C840013440393039B1B680293029A019B9A4219
:109C940002D9039B04930AE0029A019B9A4203D2DD
:109CA400039B0833059302E0039B5B6804E0059A79
:109CB400049B9A42DBD30023184606B0704700BFCA
:109CC4003C05030064060300BFF34F8F0549054BB1
:109CD400DB6803F4E062044B1343CB60BFF34F8FA4
:109CE40000BFFDE700ED00E00400FA05024B034A63
:109CF4001A6000BF704700BFB83200200090D00344
:109D040008B500F025F90346002B0ED04FF0804330
:109D14000022C3F80C214FF080430022C3F8102125
:109D24004FF080430022C3F8382500F02FF9034692
:109D3400002B76D07D4A4FF08053D3F80434C2F818
:109D440020357A4A4FF08053D3F80834C2F82435CA
:109D5400764A4FF08053D3F80C34C2F82835734A4E
:109D64004FF08053D3F81034C2F82C356F4A4FF0BB
:109D74008053D3F81434C2F830356C4A4FF0805312
:109D8400D3F81834C2F83435684A4FF08053D3F806
:109D94001C34C2F84035654A4FF08053D3F8203460
:109DA400C2F84435614A4FF08053D3F82434C2F8E2
:109DB40048355E4A4FF08053D3F82834C2F84C3506
:109DC4005A4A4FF08053D3F82C34C2F85035574ACE
:109DD4004FF08053D3F83034C2F85435534A4FF01F
:109DE4008053D3F83434C2F86035504A4FF080536E
:109DF400D3F83834C2F864354C4A4FF08053D3F862
:109E04003C34C2F86835494A4FF08053D3F84034A3
:109E1400C2F86C35454A4FF08053D3F84434C2F845
:109E2400703500F0D1F80346002B02D0404B414A74
:109E34001A6000F0DBF80346002B03D03E4BFB22F4
:109E4400C3F8182500F0E4F80346002B0AD03B4978
:109E54003A4B1B6823F00F02394B1B6803F00F03C6
:109E640013430B6000F0E6F80346002B03D0354B98
:109E74004FF400721A6000F0EFF80346002B0DD087
:109E84004FF08043D3F8003403F00103002B05D0D6
:109E94004FF080436FF00102C3F800242A4A2A4B92
:109EA400D3F8883043F47003C2F88830BFF34F8F7F
:109EB400BFF36F8F4FF01023D3F80032002B05DB74
:109EC4004FF01023D3F80432002B2BDA1F4B01225E
:109ED400C3F8042500BF1D4BD3F80034002BFAD07F
:109EE4004FF010231222C3F8002200BF174BD3F8FF
:109EF4000034002BFAD04FF010231222C3F80422AE
:109F040000BF124BD3F80034002BFAD00F4B0022C1
:109F1400C3F8042500BF0D4BD3F80034002BFAD04E
:109F2400FFF7D2FEFFF7E2FE00BF08BD00C000400D
:109F34008C5600404881030000F00040E40E0040CD
:109F4400580200104096024000ED00E000E001409D
:109F54000C4B1B68082B11D10B4B1B68002B01D138
:109F640001230CE0084B1B68012B01D1012306E0FF
:109F7400054B1B68022B01D1012300E00123184685
:109F8400704700BF30010010340100100C4B1B68F7
:109F9400082B11D10B4B1B68002B01D101230CE0C2
:109FA400084B1B68012B01D1012306E0054B1B68FC
:109FB400022B01D1012300E001231846704700BFA2
:109FC4003001001034010010064B1B68082B05D12A
:109FD400054B1B68002B01D1012300E00023184628
:109FE400704700BF3001001034010010064B1B689D
:109FF400082B05D1054B1B68002B01D1012300E080
:10A0040000231846704700BF3001001034010010CF
:10A01400064B1B68082B05D1054B1B68002B01D18F
:10A02400012300E000231846704700BF30010010F0
:10A0340034010010064B1B68082B05D1054B1B6827
:10A04400002B01D1012300E000231846704700BF14
:10A0540030010010340100100C4B1B68082B11D187
:10A064000B4B1B68002B01D101230CE0084B1B6830
:10A07400012B01D1012306E0054B1B68022B01D102
:10A08400012300E001231846704700BF300100108F
:10A094003401001000B583B00190019B1B682F2B85
:10A0A40004D90B4940F2C710FEF791FD019B1B68D0
:10A0B4001F2B02D84FF0A04306E0019B1B6803F05E
:10A0C4001F02019B1A60034B184603B05DF804FBA2
:10A0D400640603000003005000B585B001900846F3
:10A0E40011461A4603468DF803300B468DF80230AC
:10A0F40013468DF8013001AB1846FFF7CBFF0390F0
:10A10400019A9DF803109DF802305B0019439DF8F5
:10A1140001309B0019439DF818301B0219439DF828
:10A124001C301B041943039B02F5E07243F8221010
:10A1340000BF05B05DF804FB00B585B003900023B3
:10A144000193002300930023012201210398FFF7C8
:10A15400C3FF00BF05B05DF804FB00B585B00390F4
:10A164000B468DF80B309DF80B2000230193002340
:10A1740000931346002200210398FFF7ADFF00BFB0
:10A1840005B05DF804FB00B585B0019001AB18463D
:10A19400FFF780FF0390019B012202FA03F31946A3
:10A1A400039800F069F800BF05B05DF804FB00B542
:10A1B40085B0019001AB1846FFF76CFF0390019B3B
:10A1C400012202FA03F31946039800F05FF800BF76
:10A1D40005B05DF804FB00B585B0019001AB1846ED
:10A1E400FFF758FF0390039BD3F804350293029BB7
:10A1F400DA43019B012101FA03F31A40039BC3F8DC
:10A204000825019B01229A40029B1A40039BC3F834
:10A214000C2500BF05B05DF804FB00B583B00190C8
:10A224000091009B002B03D10198FFF7C0FF02E0CF
:10A234000198FFF7A8FF00BF03B05DF804FB00B569
:10A2440085B0019001AB1846FFF724FF03900398F3
:10A2540000F00AF80246019B22FA03F303F001031B
:10A26400184605B05DF804FB82B00190019BD3F859
:10A274000435184602B0704782B001900091019BEA
:10A28400009AC3F8082500BF02B0704782B001905D
:10A294000091019B009AC3F80C2500BF02B07047DF
:10A2A40000B585B00190019B032B03D911493A20D5
:10A2B400FEF78DFC104A019B13441B781846FFF7E8
:10A2C400BEFF0346002B14BF012300238DF80F307B
:10A2D4009DF80F30002B14BF01230023DBB283F061
:10A2E4000103DBB203F00103DBB2184605B05DF8ED
:10A2F40004FB00BF98060300D406030000B583B036
:10A304000190019B032B03D907494120FEF75FFC11
:10A31400064A019B13441B7800211846FFF77DFF72
:10A3240000BF03B05DF804FB98060300D4060300E5
:10A3340000B583B00190019B032B03D90749472043
:10A34400FEF745FC064A019B13441B78012118467D
:10A35400FFF763FF00BF03B05DF804FB980603003A
:10A36400D406030000B583B00023019305E00198EF
:10A37400FFF7DEFF019B01330193019B032BF6D909
:10A3840000BF03B05DF804FB00B583B00023019364
:10A3940005E00198FFF7B2FF019B01330193019B94
:10A3A400032BF6D900BF03B05DF804FB00B583B0FE
:10A3B4000190019B032B03D907495F20FEF707FC9B
:10A3C400064A019B13441B781846FFF704FF00BF9D
:10A3D40003B05DF804FB00BF98060300D406030035
:10A3E40000B583B00023019309E0094A019B13449B
:10A3F4001B781846FFF7A0FE019B01330193019BD4
:10A40400032BF2D9FFF7AEFF00BF03B05DF804FBE6
:10A41400D406030000B583B0002301930AE0094A7F
:10A42400019B13441B7803211846FFF796FE019BFA
:10A4340001330193019B032BF1D900BF03B05DF8F5
:10A4440004FB00BFD806030084B001904FF0FF3333
:10A454000293002303930DE00A4A039B13441B78E1
:10A464001A46019B9A4202D1039B029305E0039B87
:10A4740001330393039B032BEED9029B184604B0CC
:10A48400704700BFD806030000B583B00190019B5C
:10A4940003F00103002B01D0FFF7A2FF019B03F09F
:10A4A4000203002B01D0FFF7B5FF00BF03B05DF836
:10A4B40004FB000082B003468DF8073008499DF97B
:10A4C40007305B099DF8072002F01F02012000FA03
:10A4D40002F2203341F8232000BF02B0704700BFCE
:10A4E40000E100E008B504F071FE034683F00103C7
:10A4F400DBB2002B03D105497920FEF768FB00F09D
:10A504003BFB034B00229A7000BF08BDE406030026
:10A51400043A002000B583B000230193144B1B7848
:10A52400002B02D0852301931CE0114B00229A607A
:10A534000F4B00225A600E4B00221A610C4B002272
:10A54400DA600C4800F0DEFA019004F03FFE0346A6
:10A5540083F00103DBB2002B01D000F0F9FA044BC5
:10A5640001221A70019B184603B05DF804FB00BF7A
:10A57400043A002051A6020084B00190019B1B689C
:10A584000393039B002B03D0039B1A68019B1A605F
:10A59400039B184604B0704700B583B0164B1B7874
:10A5A400002B04D115494FF48470FEF710FB124BB5
:10A5B400DB68002B04D1114940F20910FEF707FBB8
:10A5C40000238DF807300DF107031846FEF7B2FAA1
:10A5D400094BDB68013B084AD360074BDB68002B5F
:10A5E40001D1FFF77FFF9DF807301846FEF7B8FA50
:10A5F40000BF03B05DF804FB043A0020E406030046
:10A6040000B585B003468DF807309DF80730002B60
:10A6140002D10C4B039301E00B4B03930398FFF718
:10A62400ABFF0290029B002B06D0029B5B689DF857
:10A63400072010469847F1E700BF00BF05B05DF85A
:10A6440004FB00BF0C3A0020143A002000B583B08C
:10A6540003468DF807309DF80730002B05D10A4BCF
:10A6640001225A700020FFF7CBFF9DF80730012B21
:10A6740005D1054B01229A700120FFF7C1FF00BFED
:10A6840003B05DF804FB00BF043A002000B583B0BA
:10A6940001900091019B002B05D1054B01225A70BA
:10A6A4000020FFF7ADFF00BF03B05DF804FB00BF5F
:10A6B400043A002000B585B0034600918DF80730B8
:10A6C4009DF80730012B08D0032B25D0002B00D098
:10A6D40030E00020FFF7EEFE2CE000238DF80F3071
:10A6E4000DF10F031846FEF725FA144B1B7883F07F
:10A6F4000103DBB2002B01D0FFF70CFF0F4BDB682B
:10A7040001330E4AD3600D4B01229A709DF80F302D
:10A714001846FEF725FA0DE0084B1B78002B04D1F0
:10A72400074940F24320FEF752FA00F011FAFFF70E
:10A7340033FF00BF00BF05B05DF804FB043A0020FE
:10A74400E406030000B589B001900091009B0793D3
:10A75400019B1B788DF80C30019B5B680493019B73
:10A764001B7A8DF81430019BDB680693074A079B1C
:10A7740052F823300649079A51F8221003AA1046CA
:10A78400984700BF09B05DF804FB00BF183A0020E9
:10A79400203A002000B589B001900091009B0793F6
:10A7A400019B1B788DF80C30019B5B680493019B23
:10A7B4009B68DBB28DF81430019BDB680693074A73
:10A7C400079B52F823300649079A51F8221003AA2E
:10A7D4001046984700BF09B05DF804FB183A002002
:10A7E400203A002030B58FB0039002910192039B70
:10A7F4001B780C9326490C9B019A41F82320029B59
:10A804001A6924490C9B41F82320029B5B7F19465B
:10A81400214A0C9B13440A461A70029B04AC1D4641
:10A824000FCD0FC495E80F0084E80F000C9B08932C
:10A8340000230D93039B1B781A46174B9B5C002B3C
:10A844000DD0039B181D019B002B01D0134A00E07F
:10A85400002204AB194602F097FB0D9014E0039B11
:10A864001B781A460C4B9B5C002B0DD1039B03F108
:10A874000C00019B002B01D0094A00E0002204AB2C
:10A88400194601F01DFD0D900D9B18460FB030BD0B
:10A89400183A0020203A0020283A002049A7020054
:10A8A40099A7020082B003468DF8073007499DF945
:10A8B40007305B099DF8072002F01F02012000FA0F
:10A8C40002F241F8232000BF02B0704700E100E02B
:10A8D40082B003468DF8073008499DF907305B09BB
:10A8E4009DF8072002F01F02012000FA02F26033F3
:10A8F40041F8232000BF02B0704700BF00E100E030
:10A9040082B0034600918DF807309DF90730002B83
:10A914000CDA0D499DF8073003F00F03043B009A4D
:10A92400D2B25201D2B20B441A7609E007499DF91A
:10A934000730009AD2B25201D2B20B4483F80023FA
:10A9440000BF02B0704700BF00ED00E000E100E08E
:10A9540000B583B003460A468DF8073013468DF8D8
:10A9640006309DF80630012B03D99DF80630032BE1
:10A974000BD99DF80630042B03D99DF80630072B1C
:10A9840003D908496B20FEF722F99DF806209DF9AA
:10A99400073011461846FFF7B3FF00BF03B05DF858
:10A9A40004FB00BF2C07030000B583B003468DF8F9
:10A9B40007309DF907301846FFF78AFF9DF90730E5
:10A9C4001846FFF76FFF00BF03B05DF804FB0000FB
:10A9D40082B003468DF807300F4A9DF90730002BEB
:10A9E40000DA1F335B115BB252F823209DF9073064
:10A9F400594203F01F0301F01F0158BF4B425BB2E1
:10AA040022FA03F303F00103002B14BF01230023F4
:10AA1400DBB2184602B0704700E100E082B001905A
:10AA24004FF08042019BC2F8083300BF02B0704768
:10AA340082B003468DF807309DF8073003F1804358
:10AA440001221A6000BF02B0704784B00346ADF81B
:10AA54000630BDF8063003F1804300221A60BDF8C9
:10AA6400063003F180431B680393039B00BF04B0CB
:10AA7400704782B00346ADF80630BDF8063003F1E6
:10AA840080431B68002B14BF01230023DBB218464C
:10AA940002B0704782B003468DF807304FF0804211
:10AAA4009DF8073003F00303C2F8183500BF02B065
:10AAB40070474FF08043D3F818341B0C03F00103A4
:10AAC400002B14BF01230023DBB21846704700B5E6
:10AAD40083B007238DF807300020FFF779FF034682
:10AAE40083F00103DBB2002B08D09DF80730194630
:10AAF4000020FFF72DFF0020FFF756FF00BF03B033
:10AB04005DF804FB00B585B00190019B002B03D1D7
:10AB14000D49A220FEF75BF8002303930B4B1B792E
:10AB2400002B02D08523039308E0084A019B13609D
:10AB3400064B01221A71054B00225A71039B1846D9
:10AB440005B05DF804FB00BF680703002C3A002041
:10AB540008B5074B1B79002B03D10649BB20FEF730
:10AB640036F8FFF7B4FF0120FFF794FF00BF08BDDC
:10AB74002C3A00206807030008B5094B1B79002B09
:10AB840003D10849F220FEF722F80C20FFF750FF0A
:10AB940000BFFFF78EFF0346002BFAD100BF08BDAC
:10ABA4002C3A00206807030008B54FF48070FFF7C3
:10ABB40060FF0346002B14D04FF48070FFF745FF6D
:10ABC4000120FFF72BFF114B5B7983F00103DBB20C
:10ABD400002B06D00D4B01225A710C4B1B68002030
:10ABE40098474FF48270FFF744FF0346002B0AD0C6
:10ABF4004FF48270FFF729FF0220FFF70FFF034B8A
:10AC04001B680120984700BF08BD00BF2C3A0020F4
:10AC140082B003468DF8073007499DF907305B0978
:10AC24009DF8072002F01F02012000FA02F241F809
:10AC3400232000BF02B0704700E100E082B0034669
:10AC44008DF8073008499DF907305B099DF8072006
:10AC540002F01F02012000FA02F2603341F82320BF
:10AC640000BF02B0704700BF00E100E082B00346BD
:10AC740000918DF807309DF90730002B0CDA0D494F
:10AC84009DF8073003F00F03043B009AD2B252013F
:10AC9400D2B20B441A7609E007499DF90730009AAD
:10ACA400D2B25201D2B20B4483F8002300BF02B0E7
:10ACB400704700BF00ED00E000E100E000B583B0A4
:10ACC40003460A468DF8073013468DF806309DF882
:10ACD4000630012B03D99DF80630032B0BD99DF8C0
:10ACE4000630042B03D99DF80630072B03D90849F5
:10ACF4006B20FDF76CFF9DF806209DF90730114687
:10AD04001846FFF7B3FF00BF03B05DF804FB00BFB4
:10AD1400B007030000B583B003468DF807309DF9F2
:10AD240007301846FFF78AFF9DF907301846FFF7EA
:10AD34006FFF00BF03B05DF804FB00B583B00346AA
:10AD4400ADF80630BDF80630184600F026F8034684
:10AD54001B68012B0CBF01230023DBB2184603B090
:10AD64005DF804FB00B585B00346ADF80630BDF8C8
:10AD74000630184600F011F803461A460023136003
:10AD8400BDF80630184600F008F803461B68039324
:10AD9400039B00BF05B05DF804FB82B00346ADF829
:10ADA4000630BDF8063003F1804303F5C04318466E
:10ADB40002B0704782B00190034A019BC2F8043389
:10ADC40000BF02B0704700BF0060004082B0019035
:10ADD400034BD3F80423019B1340184602B0704779
:10ADE4000060004082B001900849084A019B03F5C5
:10ADF400A27352F8233043F00102019B03F5A273BE
:10AE040041F8232000BF02B0704700BF006000403B
:10AE140084B00390029113468DF807301449144A04
:10AE2400039B03F5A27352F8233023F44F3323F426
:10AE34004073039A02F5A27241F822300C480C4A7E
:10AE4400039B03F5A27352F82320029B1B0203F415
:10AE54007C519DF807301B0403F440330B431A4321
:10AE6400039B03F5A27340F8232000BF04B070478E
:10AE74000060004082B00190054A019B03F5A27373
:10AE840052F823301B0A03F03F03184602B0704700
:10AE94000060004082B00190064A019B03F5A27352
:10AEA40052F823301B0C03F00303DBB2184602B044
:10AEB400704700BF0060004000B583B00190019B63
:10AEC4001B682F2B04D90B4940F2C710FDF77FFEF6
:10AED400019B1B681F2B02D84FF0A04306E0019B87
:10AEE4001B6803F01F02019B1A60034B184603B052
:10AEF4005DF804FBE40703000003005000B585B0CF
:10AF04000190084611461A4603468DF803300B4655
:10AF14008DF8023013468DF8013001AB1846FFF767
:10AF2400CBFF0390019A9DF803109DF802305B005B
:10AF340019439DF801309B0019439DF818301B02FA
:10AF440019439DF81C301B041943039B02F5E0725E
:10AF540043F8221000BF05B05DF804FB00B585B0CE
:10AF640003900B468DF80B309DF80B2000230193C2
:10AF7400002300931346002200210398FFF7BEFF2D
:10AF840000BF05B05DF804FB00B585B0019001ABCE
:10AF94001846FFF791FF0390019A039B02F5E072B4
:10AFA40053F8223023F002030293019A039B02F523
:10AFB400E072029943F8221000BF05B05DF804FB6B
:10AFC40000B585B001900B468DF8033001AB1846EF
:10AFD400FFF772FF0390019A0199039B01F5E07159
:10AFE40053F8213023F44031039B02F5E07243F817
:10AFF4002210019A0199039B01F5E07153F8213065
:10B004009DF8031009041943039B02F5E07243F809
:10B01400221000BF05B05DF804FB00B585B00190B7
:10B0240001AB1846FFF748FF0390039800F020F89F
:10B034000246019B22FA03F303F00103184605B00C
:10B044005DF804FB00B585B0019001AB1846FFF72D
:10B0540033FF0390019A039B02F5E07253F8223008
:10B064001B0C03F00303DBB2184605B05DF804FBC8
:10B0740082B00190019BD3F81035184602B0704796
:10B0840000B589B0039002910192174A05AB92E88A
:10B09400030083E80300039A029B1344022B04D9A0
:10B0A400124940F2DF20FDF792FD039B079311E064
:10B0B400079B9B0008AA134453F80C3C1846FFF75F
:10B0C400D7FF0246019B1A60019B04330193079B3F
:10B0D40001330793039A029B1A44079B9A42E7D8C9
:10B0E40000BF09B05DF804FB18080300E40703007F
:10B0F40084B001900091009B0393019BDB080293B1
:10B10400019B03F0070301930122019B02FA03F35D
:10B114000399029A0A4412781340184604B07047FF
:10B1240084B001900091009B0393019BDB08029380
:10B13400019B03F007030193039A029B13440399B1
:10B14400029A0A44127851B20120019A00FA02F2DA
:10B1540052B20A4352B2D2B21A7000BF04B070475E
:10B1640082B001900C4A019B1344303393F90030B0
:10B17400002B09DB084A019B1344303393F9003058
:10B18400072B01DC012300E0002303F00103DBB201
:10B19400184602B0704700BF343A002082B00190D4
:10B1A400064A019B1344303393F90030072BCCBF7C
:10B1B40001230023DBB2184602B07047343A002062
:10B1C40082B00190064A019B1344303393F9003056
:10B1D400DB43DBB2DB09DBB2184602B0704700BFC9
:10B1E400343A002084B00390029101928DF8033028
:10B1F400029B59B20E4A039B134430330A461A7019
:10B204000B49029B019A41F823209DF8033083F0F7
:10B214000103DBB2002B08D0029B083B039A51B216
:10B22400034A13440A4683F8602000BF04B0704701
:10B23400343A002082B00190044A019B1344303315
:10B24400FF221A7000BF02B0704700BF343A0020DA
:10B2540000B583B0019004490198FFF761FF00BF76
:10B2640003B05DF804FB00BF983A002082B001905F
:10B27400044A019B1344303393F90030184602B05A
:10B28400704700BF343A002082B00190034A019B0A
:10B2940052F82330184602B0704700BF343A0020F9
:10B2A40000B589B00390029113468DF80730FF234F
:10B2B4008DF81F309DF80730002B01D0002300E0EB
:10B2C400082305939DF80730002B01D0082300E0E4
:10B2D4000C230493059B069314E00F4A069B52F833
:10B2E4002330B3F1FF3F0AD19DF80730029A069943
:10B2F4000398FFF777FF069B8DF81F3006E0069B47
:10B3040001330693069A049B9A42E6D39DF91F30B3
:10B31400184609B05DF804FB343A002082B00346B5
:10B324008DF807309DF80730094A4FF0FF3142F895
:10B3340023109DF80730072B07D99DF80730083BE9
:10B34400034A1344FF2283F8602000BF02B0704711
:10B35400343A002000B583B0254B93F86A30002BB3
:10B3640003D008230093009B3EE000238DF80730B0
:10B3740009E09DF807301846FFF75CFF9DF8073099
:10B3840001338DF807309DF807302F2BF1D90023B6
:10B394008DF8073009E09DF807301846FFF7BEFF27
:10B3A4009DF8073001338DF807309DF807300B2BDB
:10B3B400F1D9062200210F4804F0A6FA072106203D
:10B3C400FFF77CFC0620FFF7A5FC4FF4BE70FFF7E7
:10B3D400C9FC4FF00040FFF7EDFC054B012283F858
:10B3E4006A2000230093009B184603B05DF804FB19
:10B3F400343A0020983A0020044B93F86A30002B2A
:10B4040014BF01230023DBB218467047343A0020EE
:10B4140000B587B0039002910192039B2F2B04D9AE
:10B4240036494FF40170FDF7D2FB002305930398CE
:10B43400FFF7C6FE0346002B02D00823059357E00E
:10B44400029B9B78C3F34003DBB21A46019903982D
:10B45400FFF726FF03468DF813309DF91330B3F13F
:10B46400FF3F43D0029B9B78C3F38003DBB283F09E
:10B474000103DBB2002B13D0029B9B7803F0010382
:10B48400DBB2002B03D00398FFF77EFD05E0029B9F
:10B494005B7819460398FFF761FD0398FFF7D8FE20
:10B4A400029B9B7803F00203DBB2002B08D09DF9CA
:10B4B4001300029B1B781A460399FFF7A9FC17E0B7
:10B4C4009DF91330083B9DF91320083A0C490A44AE
:10B4D40092F96010029A1278920152B20A4351B260
:10B4E400074A13440A4683F8602001E004230593C5
:10B4F400059B184607B05DF804FB00BF280803004D
:10B50400343A002000B587B001900B468DF8033023
:10B51400019B2F2B04D93D494FF40D70FDF757FBC8
:10B524000198FFF74DFE0346002B04D1374940F242
:10B534003520FDF74CFB0198FFF730FE0346002B46
:10B544002FD00198FFF792FE0346083B304A13447C
:10B5540093F960308DF816309DF816309B098DF8FC
:10B5640015309DF81530032B0BD10198FFF755FDCD
:10B574000346002B01D0032300E002238DF817308B
:10B5840008E09DF81530012B01D1022300E00323CC
:10B594008DF817309DF8173019460198FFF710FD04
:10B5A40030E00198FFF7DCFD0346002B2AD0019818
:10B5B400FFF75CFE03460493049B9BB240339BB2AB
:10B5C4009B00ADF80E30049B1846FFF70BFCBDF84A
:10B5D4000E301846FFF7C6FB9DF80330002B11D040
:10B5E4000198FFF743FE03461846FFF74DFE02900D
:10B5F400029B002B06D00122049B02FA03F3184697
:10B60400FFF7D8FB00BF07B05DF804FB2808030070
:10B61400343A002000B583B00190019B2F2B04D94C
:10B62400084940F28520FDF7D2FA0198FFF7F5FCAE
:10B634000346002B14BF01230023DBB2184603B0DA
:10B644005DF804FB2808030000B599B000231793A4
:10B6540006AB00221A605A604FF48073ADF856307E
:10B66400012314930023169321E0BDF856301846A5
:10B67400FFF763FB0346002B0ED01498FFF7A6FBDD
:10B684000346002B08D0BDF856301846FFF76AFB76
:10B69400179A149B13431793149B5B001493BDF8E0
:10B6A40056300433ADF85630169B01331693169B6F
:10B6B400072BDAD94FF4BE70FFF73FFB0346002B8C
:10B6C4000DD04FF4BE70FFF74DFB179B43F00043C2
:10B6D400179306AB1A4602210020FFF7D1FC179BF3
:10B6E400DBB2002B29D0012314930023169321E00D
:10B6F400149A179B1340002B16D01698FFF7BAFB29
:10B7040011901698FFF7C6FB03468DF84330169840
:10B71400FFF7BAFD0F900F9B002B05D09DF8432037
:10B724000F9B114611989847149B5B001493169B2A
:10B7340001331693169B072BDAD9179B002B80F243
:10B74400F08000238DF84B3004AB00221A605A605D
:10B75400002313930AE0139B9B0018AA13444FF091
:10B76400FF3243F8582C139B01331393139B012B83
:10B77400F1D900238DF84B300023169378E06B4AFF
:10B78400169B1344603393F900308DF83B309DF8D9
:10B794003B3023F0C0030D93644A169B134460337B
:10B7A40093F90030B3F1FF3F5FD002AB19460D9817
:10B7B400FFF79EFC0346002B57D09DF83B309B09B6
:10B7C4008DF833300D98FFF751FD03461846FFF707
:10B7D4005BFD0B900B9B002B03D19DF83330032BA7
:10B7E40043D19DF83330032B04D104AB19460D9893
:10B7F400FFF796FC0D98FFF725FC03468DF82B30D8
:10B8040006AB19460D98FFF773FC0990099B002BB2
:10B8140003D09DF82B30022B06D0099B002B24D19A
:10B824009DF82B30032B20D19DF83330032B13D1FB
:10B834009DF82B30022B01D1032300E002238DF865
:10B8440023309DF8233019460D98FFF7B9FB9DF876
:10B854004B3001338DF84B300B9B002B05D09DF8FA
:10B8640033200B9B11460D989847169B0133169372
:10B87400169B032B83D99DF84B30002B4CD001230E
:10B884008DF84A306B461A4602210020FFF7F8FB78
:10B894000023139314E0139B9B0018AA134453F83A
:10B8A400602C139B9B0018A90B4453F8483C9A4204
:10B8B40003D000238DF84A3005E0139B0133139322
:10B8C400139B012BE7D99DF84A30002B03D00023AA
:10B8D4008DF84B3020E0002313931AE0139B9B0058
:10B8E40018AA134453F8602C139B9B0018A90B440B
:10B8F40043F8482C139B9B0018AA134453F8502C6C
:10B90400139B9B0018A90B4443F8582C139B013339
:10B914001393139B012BE1D99DF84B30002B7FF43B
:10B9240028AF00BF19B05DF804FB00BF343A002013
:10B9340008B5064B1B68002B03D105495120FDF7C0
:10B9440046F9024B1B68984700BF08BDA03A002087
:10B954007408030082B00190019B044A934201D110
:10B96400034B00E00023184602B07047002000405B
:10B97400A03A002000B587B001900091019B002BF4
:10B9840003D11C497720FDF722F90198FFF7E2FF64
:10B994000490049B002B25D000238DF8173000233E
:10B9A4008DF80B300DF10B031846FDF7C3F8049B1B
:10B9B4001B79002B03D001238DF8173005E0049B7D
:10B9C400009A1A60049B01221A719DF80B301846E4
:10B9D400FDF7C6F89DF81730002B03D0112303930D
:10B9E400039B02E000230393039B184607B05DF812
:10B9F40004FB00BF7408030000B585B00190019BEF
:10BA0400002B03D10A499B20FDF7E1F80198FFF7C9
:10BA1400A1FF0390039B002B05D0039B00221A6017
:10BA2400039B00221A7100BF05B05DF804FB00BF40
:10BA34007408030082B001900091019B009AC3F83E
:10BA4400082300BF02B0704782B001900091019BAF
:10BA5400D3F80423009B1340184602B0704782B009
:10BA640001900B46ADF80230BDF80230019A134440
:10BA74001B68184602B0704784B001900B46ADF8BD
:10BA84000230BDF80230019A134400221A60BDF856
:10BA94000230019A13441B680393039B00BF04B054
:10BAA400704782B001900091019B009AC3F848232B
:10BAB40000BF02B07047000000B589B00390029146
:10BAC40001924FF4803306934FF4A073ADF816300F
